:020000040800F2
:1000000000490020E902000829210008ED1B000832
:10001000751F00086D060008752600080000000026
:10002000000000000000000000000000290200089D
:100030006F0600080000000085020008B3210008D8
:100040000303000803030008030300080303000878
:100050000303000803030008030300080303000868
:100060000303000803030008030300080303000858
:100070000303000803030008030300080303000848
:100080000303000803030008030300080303000838
:100090000303000803030008030300080303000828
:1000A0000303000803030008030300080303000818
:1000B000712200080303000803030008030300087B
:1000C00003030008030300080303000803030008F8
:1000D000030300086926000803030008030300085F
:1000E00003030008030300080303000803030008D8
:1000F00003030008030300080303000803030008C8
:1001000003030008030300080303000803030008B7
:1001100003030008030300080303000803030008A7
:100120000303000803030008030300080303000897
:100130000303000803030008030300080303000887
:100140000303000803030008030300080303000877
:100150000303000803030008030300080303000867
:100160000303000803030008030300080303000857
:100170000303000803030008030300080000000055
:10018000030300080303000800F002F800F03CF845
:100190000AA090E8000C82448344AAF10107DA45E2
:1001A00001D100F031F8AFF2090EBAE80F0013F0F8
:1001B000010F18BFFB1A43F001031847C0300000BD
:1001C000E0300000103A24BF78C878C1FAD852074E
:1001D00024BF30C830C144BF04680C6070470000C1
:1001E0000023002400250026103A28BF78C1FBD840
:1001F000520728BF30C148BF0B6070471FB503F0DE
:1002000003F81FBD10B510BD00F061F91146FFF7EE
:10021000F5FF02F041FA00F07FF903B4FFF7F2FFB7
:1002200003BC00F087F900002C4B19680868B0E89F
:10023000F04F80F30988BFF36F8F4FF0000080F319
:10024000118870470000000008480068006880F3CB
:1002500008884FF0000080F3148862B661B6BFF3DF
:100260004F8FBFF36F8F00DF00BF00BF08ED00E0CE
:10027000DFF80C00016841F470010160704700BFB5
:1002800088ED00E0EFF30980BFF36F8F134B1A681E
:100290001EF0100F08BF20ED108A20E9F04F10600B
:1002A00009B44FF0500080F31188BFF34F8FBFF3B4
:1002B0006F8F02F0BDFD4FF0000080F3118809BC84
:1002C00019680868B0E8F04F1EF0100F08BFB0ECD6
:1002D000108A80F30988BFF36F8F70471C000020DD
:1002E000EFF3058070470000094880470948004740
:1002F000FEE7FEE7FEE7FEE7FEE7FEE7FEE7FEE7D6
:10030000FEE7FEE704480549054A064B7047000032
:1003100061220008890100080043002000490020F4
:10032000004500200045002053EA020C00F06980DF
:100330002DE9F04B4FF00006002B1FBFB3FA83F5F9
:1003400003FA05F424FA05F65E4012BF1643B2FA2A
:1003500082F502FA05F4C5F120051EBF22FA05FC5C
:1003600044EA0C04203556EA044C4FEA144418BF02
:10037000641C4FF000084FF00009904271EB030C31
:1003800039D3002919BFB1FA81F701FA07F6B0FA9B
:1003900080F700FA07F6C7F120071EBF20FA07FC16
:1003A00046EA0C062037B6FBF4FCA7EB0507103F26
:1003B00007F01F0BCBF120060CFA0BFB2CFA06F60C
:1003C00044BFB3460026202FA4BF5E464FF0000B6B
:1003D0005BEA060C08BF4FF0010B19EB0B09ABFBF6
:1003E000027C48EB0608C01B06FB02CC0BFB03CCCF
:1003F00071EB0C01C1E70B46024641464846BDE899
:10040000F08B13B54FF000004FF00001AFF3008008
:10041000BDE81C40704710B5203AC0F00B80B1E831
:100420001850203AA0E81850B1E81850A0E8185029
:10043000BFF4F5AF5FEA027C24BFB1E81850A0E832
:10044000185044BF18C918C0BDE810405FEA827C4C
:1004500024BF51F8043B40F8043B08BF7047D20763
:1004600028BF31F8023B48BF11F8012B28BF20F804
:10047000023B48BF00F8012B70474FF0000200B567
:10048000134694469646203922BFA0E80C50A0E8B7
:100490000C50B1F12001BFF4F7AF090728BFA0E865
:1004A0000C5048BF0CC05DF804EB890028BF40F831
:1004B000042B08BF704748BF20F8022B11F0804F73
:1004C00018BF00F8012B704770477047704775469A
:1004D00000F02CF8AE4605006946534620F00700B0
:1004E000854618B020B5FFF70DFFBDE820404FF05E
:1004F00000064FF000074FF000084FF0000B21F00E
:100500000701AC46ACE8C009ACE8C009ACE8C009DA
:10051000ACE8C0098D46704710B50446AFF30080C3
:100520002046BDE81040FFF778BE00000048704745
:10053000A042002001491820ABBEFEE726000200C1
:1005400070470000464910B54A6822F440324A60BC
:100550004A6843681A434A6001684A6822F4807214
:100560004A6001684A68036942EA03224A600168F6
:100570004A6822F040724A6001684A6883681A43F8
:100580004A6001688A6822F400628A6001688A68A9
:10059000C3681A438A60816A6FF07062D142016851
:1005A0008A6822F070628A6001688A680CD0836A67
:1005B0001A438A6001688A6822F040528A600168A2
:1005C0008A68C36A1A4301E022F040528A600168D7
:1005D0008A6822F002028A6001688A68037E42EA21
:1005E00043028A6090F82010002901684A680FD001
:1005F00042F400624A6001684A6822F460424A603C
:1006000001684A68174C436A04EB43331A4301E01C
:1006100022F400624A600168CA6A22F47002CA6267
:100620000168CA6A838B104C04EB03531A43CA62F5
:1006300001688A6822F400728A6001688A6890F80A
:10064000303042EA43228A6001688A6822F480627C
:100650008A6001688A68406942EA8020886010BD2B
:100660000023014000E0FFFF0000F0FFFEE77047BD
:1006700072B6FEE778B50024009490F83C20012A79
:1006800019D0012280F83C200A6807230568092A4E
:1006900013D9EE680A3A02EB420293409E43EE60A1
:1006A0000B788A680A3B03EB43039A400368DD68D2
:1006B0002A43DA6010E0022078BD2E6902EB420284
:1006C00093409E432E610B788A6803EB43039A4064
:1006D00003681D692A431A614A681F23072A13D237
:1006E00005686E6B521E02EB820293409E436E635E
:1006F0000B790A885B1E92B203EB83039A4003686E
:100700005D6B2A435A6327E005680D2A12D22E6BCF
:10071000D21F02EB820293409E432E630B790A881C
:10072000DB1F92B203EB83039A4003681D6B2A43DD
:100730001A6311E0EE6A0D3A02EB820293409E4387
:10074000EE620B790A880D3B92B203EB83039A4069
:100750000368DD6A2A43DA62164B0568144A9D4233
:1007600006D10D68122D03D1556845F480055560FA
:1007700005689D4218D10B68102B01D0112B13D1A5
:10078000536843F400035360096810290CD10A49E7
:100790000A4A0968B1FBF2F101EB8101490000E06E
:1007A000491E00910029FBD180F83C40002078BD13
:1007B00000230140002001401800002040420F00AB
:1007C00070B504004FF0000503D0206C002610B176
:1007D00007E0012070BD204600F01CF8666484F834
:1007E0003C60206CC00610D4206C20F4885040F08F
:1007F000020020642046FFF7A5FE6664206C20F00E
:10080000020040F00100206400E0012584F83C6013
:10081000284670BD70B586B0044614216846FFF7BF
:100820002CFE1E491C4E256800221C4814390F233B
:100830000324B54213D1056845F48075056000684E
:1008400000F480700590086840F0040008600868B3
:10085000009300F0040005906946114815E0114E20
:10086000B54216D1056845F400750560006800F4CE
:1008700000700590086840F0010008600868009367
:1008800000F00100059008486946CDE9014200F0FA
:100890007BF806B070BD00000020014044380240E3
:1008A0000008024000210140000002402DE9F04113
:1008B0000446876D00F06EF9064694F83500002571
:1008C000022806D08020606584F834500120BDE8FD
:1008D000F0812068016821F01601016020684169FB
:1008E00021F080014161206C08B9A06C20B1206822
:1008F000016821F0080101602068016821F0010110
:1009000001600CE000F046F9801B052807D9202083
:100910006065032084F8350084F83450D7E72068F8
:100920000068C007EED194F85C103F208840B860A2
:10093000012084F8350084F834500020C7E790F88F
:100940003510022903D0802141650120704705211F
:1009500080F835100068016821F001010160002075
:100960007047000070B5044600F014F90546601C9D
:1009700002D004480078044400F00CF9401BA04267
:10098000FAD370BD0C0000202DE9F84FDFF8BCA1B0
:100990000022012503264FF00F090AF1040BAAF1EA
:1009A000040E00BF0B6805FA02F42340A34270D185
:1009B0000F7907F00307012F01D0022F16D18768A6
:1009C0004FEA420806FA08FC27EA0C07D1F80CC0E7
:1009D0000CFA08FC4CEA070CC0F808C04768A743AB
:1009E0000C79C4F3001494403C4344600C79E44314
:1009F000A4070AD0C4684FEA420C06FA0CF7BC43BD
:100A00008F6807FA0CF72743C7600C7904F00304DA
:100A1000022C12D1D40800EB840CDCF820405707DC
:100A2000FF0E09FA07F824EA0804D1F8108008FA42
:100A300007F848EA0408CCF8208004684FEA420C22
:100A400006FA0CF7BC430F7907F0030707FA0CF717
:100A5000274307604C6814F4403F70D03C4C276833
:100A600047F480472760246822F0030704F4804499
:100A70000094384C07EB040CDCF8084897074FEA61
:100A8000177809FA08F7BC43334FB84202D1002760
:100A900024E054E0314FB84201D101271EE0304F2D
:100AA000B84201D1022719E02E4FB84201D10327E5
:100AB00014E02D4FB84201D104270FE02B4FB8426C
:100AC00001D105270AE02A4FB84201D1062705E0E7
:100AD000284FB84201D1072700E0082707FA08F796
:100AE0002743CCF80878DAF800405746D1F804C01C
:100AF0009C435FEACC2C00D51C433C60DBF80040F3
:100B00005F46D1F804C09C435FEA8C2C00D51C439F
:100B10003C60DEF800407746D1F804C09C435FEAB1
:100B20008C3C00D51C433C60084F083F3C68D1F822
:100B300004C09C435FEACC3C00D51C433C60521C83
:100B4000102AFFF42FAFBDE8F88F0000083C0140E9
:100B500044380240003001400000024000040240DE
:100B600000080240000C0240001002400014024045
:100B700000180240001C0240426921EA02030A40B8
:100B800043EA0241816170470AB1816170470904FB
:100B9000FBE7000001488068704700000C0000205F
:100BA0000248816802781144816070470C0000207F
:100BB0000B4810B5016841F400710160016841F40F
:100BC00080610160016841F480710160032000F0E0
:100BD00073F80F2000F006F800F024F8002010BD94
:100BE000003C024070B50D4D04464FF47A712878F0
:100BF000B1FBF0F00A490968B1FBF0F000F0C6FB68
:100C000048B9102C07D200222146501E00F034F8BB
:100C100000206C6070BD012070BD00000C00002041
:100C2000180000200C4882B0016841F48041016046
:100C3000006800F4804000900748001F016841F000
:100C4000805101600068002200F0805000900F2168
:100C5000901E02B000F010B844380240002809DBB2
:100C600000F01F02012191404009800000F1E020C6
:100C7000C0F8001170470000F0B40E4B1B680C4622
:100C8000C3F30223C3F10705042D00D90425191D60
:100C9000072901D2002300E0DB1E012606FA05F138
:100CA000491E214099409E40761E16403143F0BCBB
:100CB00001F0E1BC0CED00E0064900F00702086815
:100CC0004FF6FF03184040EA0220034A1043086031
:100CD000704700000CED00E00000FA052DE9F04738
:100CE0000E46050065D0DFF81481D8F80000F7B291
:100CF00000F00700B04207D288F80070D8F8000072
:100D000000F00700B04254D128683D4C810712D54D
:100D1000400703D5206840F4E050206028780007A1
:100D200003D5206840F4604020602068A96820F066
:100D3000F000084320602878C0072DD0304968684B
:100D40000839012812D0022813D0032811D00968CD
:100D5000890700292DDA216821F003010143216070
:100D6000FFF718FF814641F2883A0EE009688903CF
:100D7000EFE709688901ECE7FFF70CFFA0EB090139
:100D8000514502D90320BDE8F0872068696800F06A
:100D90000C00B0EB810FEFD1D8F80010404601F005
:100DA0000701B14207D90770006800F00700B042A0
:100DB00001D00120E7E72878400705D52068E968D9
:100DC00020F4E050084320602878000706D520680A
:100DD000296920F4604040EAC100206000F038F842
:100DE0002168084AC1F30311515CC84006490860F4
:100DF00006480068FFF7F6FE0020C4E7003C02400A
:100E0000083802404C320008180000201000002072
:100E10000448054900680968044AC1F38221515C0D
:100E2000C840704718000020083802405C320008B3
:100E30000448054900680968044AC1F34231515C1D
:100E4000C840704718000020083802405C32000893
:100E5000154810B5006810F00C02144813D014495E
:100E6000042A0FD0082A0ED10F4C241F22682368B1
:100E700002F03F025B0207D52068C0F38810A0FB98
:100E8000010106E0084610BD2168C1F38811A1FBED
:100E900000010023FFF748FA2168C1F30141491C12
:100EA0004900B0FBF1F010BD083802400024F40006
:100EB000001BB7002DE9F84F04006ED02078DFF852
:100EC0004C93C007A9F104054AD009F10400016858
:100ED000C1F38101012908D00068C0F38100022814
:100EE0000AD1D9F80000400206D52868800337D51A
:100EF00060680028E1D033E06068B0F5803F10D032
:100F0000B0F5A02F286810D020F480302860286821
:100F100020F4802028606068A8B1FFF73BFE0646F9
:100F20000DE0286840F48030F4E740F48020286029
:100F3000F7E700BFFFF72EFE801B642873D82868F0
:100F40008003F7D50CE0FFF725FE064605E000BF5D
:100F5000FFF720FE801B6428F0D828688003F7D4B0
:100F60002078DFF8AC8280074FF0000A3ED5A74812
:100F7000001D016811F00C0F08D00068C0F381005B
:100F800002280BD1D9F80000400207D42868800756
:100F900016D5E068012800D112E033E1E068B8B16D
:100FA0000120C8F80000FFF7F5FD064605E000BF88
:100FB000FFF7F0FD801B0228C0D828688007F7D50E
:100FC0002868216920F0F80040EAC10028600DE09F
:100FD000C8F800A0FFF7DEFD064604E0FFF7DAFDE3
:100FE000801B02281FD828688007F7D420780007C4
:100FF00022D5864F87486169703771B10121016040
:10100000FFF7C8FD064604E0FFF7C4FD801B022879
:1010100009D838688007F7D50EE0C0F800A0FFF7C0
:10102000B9FD064605E082E0FFF7B4FD801B02280B
:101030007DD838688007F7D42078400768D5DFF876
:10104000CCB100270BF13C0BDBF80000C0000BD447
:10105000DBF8001041F08051CBF80010DBF8000005
:10106000012700F0805000906B4E3068C00510D40E
:10107000306840F480703060FFF78CFD009005E030
:10108000FFF788FD0099401A022850D83068C00543
:10109000F6D55E4EA0686C3601280FD00528306862
:1010A00010D020F001003060306820F00400306083
:1010B000A068B8B1FFF76EFD00900FE0306840F017
:1010C0000100F4E740F004003060F7E7FFF762FD4D
:1010D0000099411A41F28830814266D83068800711
:1010E000F4D50EE0FFF756FD009007E0FFF752FD44
:1010F0000099411A41F28830814256D83068800701
:10110000F4D42FB1DBF8001021F08051CBF800109F
:10111000A069C8B33D49091D0968C1F381010229CD
:101120004AD00228504607D0C8F8600000E03CE0F2
:10113000FFF730FD04463BE04746C8F86000FFF784
:1011400029FD064605E000BFFFF724FD801B0228AD
:101150002BD828688001F7D4D4E907010843A16A95
:101160002E4A490802EB0141626A41EA82110843B2
:1011700094F82C1040EA0161C9F80010012038668B
:10118000FFF708FD044606E03EE000BFFFF702FD62
:10119000001B022809D828688001F7D534E000BF79
:1011A000FFF7F8FC001B022802D90320BDE8F88FE6
:1011B00028688001F4D427E00128F7D0D9F800008E
:1011C000E26900F4800191421CD1226A00F03F01E3
:1011D000914217D147F6C071626A0140B1EB821F9C
:1011E00010D1A26A4FF0FF3300F4403103EB5202FA
:1011F000B1EB024F06D194F82C1000F07060B0EB08
:10120000016F01D00120D1E70020CFE70438024070
:1012100000004742800E4742007000400000FFFF80
:1012200070B5040009D0606A002540B12561656190
:10123000A56294F8510040B10CE0012070BD6068D7
:10124000B0F5827FF4D0E561F2E784F85050204693
:1012500000F044F8022084F851002068016821F071
:1012600040010160A088218900F4827001F40441EA
:101270000843A18901F400610843217C01F00201C7
:101280000843217D01F001010843218B01F4007125
:101290000843217F01F03801084394F8201001F041
:1012A00080010843218D01F4005108432168086042
:1012B000A069042101EA104094F8241001F0100103
:1012C0000843216848602068C16921F40061C16158
:1012D0006565012084F85100002070BD70B586B0AE
:1012E000044614216846FFF7C8F8234E22680021FF
:1012F0002248022303240525B2421AD11F4A143280
:10130000166846F480561660126802F48052059200
:10131000026842F001020260006802AA00F00100C7
:10132000059082E83200E020CDE9000369461448C8
:101330001DE0144EB2421CD1104A1032166846F419
:1013400080461660126802F480420592026842F0FC
:1013500002020260006802AA00F00200059082E822
:1013600032004FF46040CDE9000369460648FFF7BC
:101370000BFB06B070BD0000003001403038024069
:1013800000000240003800400004024010B5401E3A
:10139000B0F1807F01D3012010BD4FF0E0246061E7
:1013A0000F21601701F067F90020A061072020617C
:1013B000002010BD7047704770B590F83C20012A9E
:1013C00032D0012480F83C40022280F83D2003689E
:1013D0005A689D6822F070060A6832435A60134BBF
:1013E00002689A4214D0B2F1804F11D0104B9A4249
:1013F0000ED0104B9A420BD00F4B9A4208D00F4B95
:101400009A4205D00E4B9A4202D00E4B9A4204D11A
:10141000496825F080031943916080F83D40002120
:1014200080F83C10084670BD022070BD00000140ED
:101430000004004000080040000C0040000401408F
:10144000004001400018004010B5040003D094F89B
:101450003D0010B107E0012010BD002084F83C00E1
:10146000204600F01FF8022084F83D00211D20686E
:1014700000F00EFF012084F8460084F83E0084F856
:101480003F0084F8400084F8410084F8420084F86A
:10149000430084F8440084F8450084F83D000020AF
:1014A00010BD000008B50068B0F1804F12D10A48A5
:1014B000016841F0010101600068002200F00100B4
:1014C000009005211C20FFF7D7FBBDE808401C2039
:1014D000FFF7C4BB08BD00004038024090F83D1043
:1014E000012901D001207047022180F83D100168D8
:1014F000CA6842F00102CA6000681149884214D0EB
:10150000B0F1804F11D00F4988420ED00E49884269
:101510000BD00E49884208D00D49884205D00D49AC
:10152000884202D00C49884204D1816801F0070149
:10153000062903D0016841F00101016000207047D5
:10154000000001400004004000080040000C004082
:1015500000040140004001400018004070B50446FE
:1015600090F83C000025012817D0012684F83C6043
:10157000022084F83D002068826822F0770222F47D
:101580007F4282600868502838D00DDC20284FD078
:1015900005DC90B3102811D14AE0022070BD30283C
:1015A00046D040280AD13BE060282FD070280DD0CB
:1015B000B0F5805F03D0B0F5005F12D0012584F84C
:1015C0003D60002084F83C00284670BDCB68D1E91E
:1015D0000121206800F0C4FE2068816841F0770195
:1015E00009E0CB68D1E90121206800F0B9FE20684C
:1015F000816841F480418160E1E719E0CA68496887
:10160000206800F0BFFE5021206806E0CA684968E3
:10161000206800F0C8FE6021206800F0ABFECEE735
:10162000CA684968206800F0ADFE40212068F4E7F0
:10163000226801461046F0E770472DE9F041044664
:101640000068C66805694FF00007A90713D5B10700
:1016500011D5F91E0161012020772068806980077B
:10166000204602D0FFF7E8FF04E000F07EF82046B5
:1016700000F07CF82777680716D5700714D5216825
:101680006FF004000861022020772068806910F460
:10169000407F204602D0FFF7CFFF04E000F065F85E
:1016A000204600F063F82777280715D5300713D5B3
:1016B00021686FF008000861042020772068C06965
:1016C0008007204602D0FFF7B7FF04E000F04DF896
:1016D000204600F04BF82777E80616D5F00614D51B
:1016E00021686FF010000861082020772068C06929
:1016F00010F4407F204602D0FFF79EFF04E000F088
:1017000034F8204600F032F82777E80708D0F007D1
:1017100006D021686FF001000861204600F028F82B
:10172000280608D5300606D521686FF080000861CC
:101730002046FFF73FFE680608D5700606D52168EB
:101740006FF040000861204600F026F8A8060AD590
:10175000B00608D521686FF0200008612046BDE87A
:10176000F041FFF728BEBDE8F081704770470000E8
:1017700010B50068B0F1804F0AD1064C2068401CBB
:1017800020602068002803D000F062FC0020206068
:1017900010BD000000000020704770477047000037
:1017A000F8B5016804460868CA684B6910F00F0F65
:1017B0004FF0000559D003F0010602F4907737434B
:1017C00065D0C10705D0D10503D5616C41F0010199
:1017D0006164410705D5D90703D0616C41F002016E
:1017E0006164810705D5D90703D0616C41F004011C
:1017F0006164010707D502F02001314303D0616C19
:1018000041F008016164616C00293AD0800604D57A
:10181000900602D5204600F006FE20684069616C03
:10182000C0F38010090700D460B3204600F0D4FD57
:1018300020684069400621D52068143050E8001F18
:1018400021F0400140E80012002AF5D1E06BA8B178
:1018500072490165E06BFFF772F8002811D0E06B68
:10186000016D01B0BDE8F040084783060FD593062F
:101870000DD52046BDE8F84000F0D5BD2046FFF765
:101880008DFFF8BD2046FFF789FF6564F8BD266B24
:101890002023012E7ED1C6067CD5D6067AD50868CF
:1018A0004868009048694FF0020640064DD5E26B4B
:1018B000106840684FF480770004000C3AD0A18D86
:1018C000814237D9E085D069B8422DD020680C30EC
:1018D00050E8001F21F4807140E80012002AF5D181
:1018E0002068143050E8001F21F0010140E8001288
:1018F000002AF5D12068143050E8001F21F0400183
:1019000040E80012002AF5D184F8423025632068AF
:101910000C3050E8001F21F0100140E80012002AAE
:10192000F5D1E06BFEF7C2FF6663A08DE18D401A32
:1019300081B206E0A18D8142A8D1D069B842A5D17B
:1019400066632046FFF729FFF8BDA08DE18D401AA0
:1019500081B2E08D0028F7D00029F5D020680C3046
:1019600050E8002F22F4907240E80027002FF5D1B4
:101970002068143050E8002F22F0010240E80027D0
:10198000002FF5D184F84230256320680C3050E8F0
:10199000002F00E006E022F0100240E80023002BB8
:1019A000F3D1CDE705062BD5150629D594F84100CE
:1019B0002128C9D1A068B0F5805F01D12069B0B1FC
:1019C000206A411C2162216800784860E08C401E3A
:1019D0000004000CE084B7D12068C16821F08001C8
:1019E000C1602068C16841F04001C160F8BD206A53
:1019F0000088C0F308004860206A801C2062E5E788
:101A00004006F3D55006F1D5CA68204622F04002C0
:101A1000CA6084F8413000F0E8F8F8BDCB23000834
:101A200070B5040004D094F84100002510B106E020
:101A3000012070BD84F84050204600F023F8242097
:101A400084F841002068C16821F40051C16020463B
:101A500000F04AFD2068016921F49041016120688D
:101A6000416921F02A0141612068C16841F40051B7
:101A7000C1606564202084F8410084F842006563F9
:101A8000002070BD70B586B0044614216846FEF78C
:101A9000F4FC284E2268002127480223032407254E
:101AA000B24225D1244A1432166846F01006166058
:101AB000126802F010020592026842F00102026010
:101AC000006802AA00F00100059082E8320060027E
:101AD000CDE9000369461948FEF756FF00220521AB
:101AE0002520FFF7C9F82520FFF7B8F806B070BD2C
:101AF000134EB242FAD1104A1032166846F48026CC
:101B00001660126802F480220592026842F0080210
:101B10000260006802AA00F00800059082E8320026
:101B20004FF44070CDE9000369460648FEF72CFFEC
:101B3000DCE70000001001403038024000000240A5
:101B400000480040000C024070472DE9F84304466D
:101B500090F84100984616460D46202802D00220F3
:101B6000BDE8F88385B17EB100206064212084F84F
:101B70004100FFF70FF8A6848146E684A06820277D
:101B8000B0F5805F02D003E00120E9E7206910B1E1
:101B90002E4600250EE000260CE08021204600F0B5
:101BA00029FDA8B9C6B116F8010B21684860E08C80
:101BB000401EE084E08C4B464FF00002CDF80080E0
:101BC0000028EAD14FF04001204600F013FD40B15B
:101BD00084F841700320C3E735F8020BC0F3080016
:101BE000E3E784F841700020BAE77047FEE70000A1
:101BF0007FB500241548009401940294124903947F
:101C0000016001254FF480310561C0E901140576BA
:101C100080F820400E49C0E90A14C561C46080F80C
:101C200030404561FEF7CCFD08B1FEF721FD0B20E9
:101C3000CDE90005694602940448FEF71BFD002823
:101C400001D0FEF715FD7FBD002001409803002064
:101C50000100000F7FB50024154800940194029400
:101C600012490394016001254FF480310561C0E9F8
:101C70000114057680F820400E49C0E90A14C561B8
:101C8000C46080F830404561FEF79AFD08B1FEF768
:101C9000EFFCCDE90045694605480294FEF7EAFCF1
:101CA000002801D0FEF7E4FC7FBD000000210140C8
:101CB000E00300200100000F10B58EB01C220B497C
:101CC0006846FEF7A8FB0021684600F031FD084C8D
:101CD00006491C2220601C3107A8FEF79CFB00214E
:101CE00007A800F025FD60600EB010BD143200089A
:101CF000040000202DE9F04F87B014216846FEF75C
:101D0000BCFB3F480024016841F0100101600168FC
:101D100001F010010591016841F0040101600168C2
:101D200001F004010591016841F0010101600168C1
:101D300001F001010591016841F0020101600168B3
:101D400001F002010591016841F00801016000689D
:101D5000DFF8B0A000F0080049F610150590002249
:101D600029465046FEF710FFDFF89CB041F6F076AA
:101D7000002231465846FEF707FF4FF40047002285
:101D800039462248FEF700FF4FF4C0580022414672
:101D90001F48FEF7F9FE4FF60F09002249461D487D
:101DA000FEF7F2FE00950125CDE901546946504643
:101DB0000394FEF7E9FD0096CDE9015469465846C3
:101DC0000394FEF7E1FD0097CDE9015469460F4801
:101DD0000394FEF7D9FDCDF80080CDE901546946A2
:101DE0000B480394FEF7D0FDCDF80090CDE90154E7
:101DF000694608480394FEF7C7FD07B0BDE8F08FB9
:101E0000303802400000024000080240001002404A
:101E100000040240000C02400F4810B50D4901605B
:101E20004FF48271416000218160C1604FF4007203
:101E30000161C0E90512C1610162416281620A214A
:101E4000C162FFF7EDF9002803D0BDE81040FEF7AE
:101E50000FBC10BD00300140280400200F4810B511
:101E60000D4901604FF48271416000218160C160C1
:101E70004FF400720161C0E90512C1610162416263
:101E800081620A21C162FFF7CBF9002803D0BDE8C7
:101E90001040FEF7EDBB10BD00380040800400206C
:101EA00010B586B00024164800940194029403945F
:101EB00004944FF08041059401601B21C0E9011496
:101EC000EF21C0E9031480218161FFF7BDFA08B159
:101ED000FEF7CEFB4FF48050009069460848FFF7AC
:101EE0003DFB08B1FEF7C4FB049404A90448059423
:101EF000FFF762FA002801D0FEF7BAFB06B010BD6A
:101F0000D80400200C4810B50A4901604FF49641EE
:101F10004160002181600C22C160C0E9041281612E
:101F2000C161FFF77DFD002803D0BDE81040FEF73A
:101F30009FBB10BD00100140200500200C4810B5CB
:101F40000A4901604FF4E1314160002181600C22B7
:101F5000C160C0E904128161C161FFF761FD002821
:101F600003D0BDE81040FEF783BB10BD0048004021
:101F700068050020FEE7000003280AD2054A02EBAC
:101F8000801021B10022818A0069FEF7FDBD012287
:101F9000F9E770478400002010B50446032842D2B8
:101FA0002148224900EB841224B1012C0BD0022CD1
:101FB00013D12EE0402011609080800091609081CC
:101FC0008020116108E01A481060831493809160AA
:101FD00001159181106148019082002010635063C7
:101FE00082F83800012082F839001420D0639188EB
:101FF00010680022FEF7C8FD0121204600F050F8CD
:1020000000212046FFF7B8FFBDE810400A20FEF788
:10201000A9BC08480221106091800821906091813C
:1020200010610420D8E710BD8400002000080240A1
:1020300000000240000C024010B500F041F80024FE
:102040002046FFF7A9FF641CE4B2032CF8D310BDAF
:102050002DE9F0410025114E4FEA050706EB8514E6
:1020600094F8380098B1D4E90C0181420FD2A188CC
:102070002068FEF781FD606B401C6063216B884225
:1020800005D384F8387000212846FFF775FF6D1CD2
:10209000EDB2032DE2D3BDE8F08100008400002002
:1020A00003280AD2054A02EB801009B1012200E0A0
:1020B000002281898068FEF767BD70478400002098
:1020C00010B50B4C0122D1032046FEF75DFD012225
:1020D00091032046FEF758FD00224FF400512046A0
:1020E000FEF752FDBDE810400A20FEF73BBC0000A1
:1020F000000C024010B50446032812D2094800EB38
:1021000084130020E3E90C1001205A721872114662
:102110002046FFF7C5FF2046BDE810400121FFF72C
:102120002BBF10BD84000020FEE70000FFF784FFF6
:10213000642313220CA11148FFF707FD01210020A1
:10214000FFF7AEFF01210020FFF716FF4FF4FA74EE
:10215000012221460020FFF7CDFF64232A2208A197
:102160000648FFF7F2FCF3E74D6F746F722054617D
:10217000736B20537461727465640A00200500203B
:102180004D6F746F722053657175656E6365204382
:102190006F6D706C657465642C2052657374617228
:1021A00074696E672E2E2E0A00000000FFF744FFB0
:1021B000FEE710B5FEF7F4FC00F050FF012803D055
:1021C000BDE8104000F0DCBE10BD000030B593B09B
:1021D00030216846FEF751F914210CA8FEF74DF99D
:1021E0001D480025016841F080510160006800F041
:1021F000805011901948016841F4804101600068E5
:10220000022400F48040119001200090000401900D
:102210008001CDE9064006200890A820CDE90904F8
:1022200004200B906846FEF745FE08B172B6FEE743
:102230000CA90F2081E831004FF4A0500F904FF40B
:102240008050109005210CA8FEF748FD002801D011
:1022500072B6FEE713B030BD403802400070004057
:102260000248016841F470010160704788ED00E0A8
:1022700010B50648FFF7E1F94FF08040016921F001
:1022800001010161BDE81040FFF7E2BED804002063
:10229000F0B50268274B284D284E294F294C4FF0A6
:1022A000804C984209D0604507D0A84205D0B04282
:1022B00003D0B84201D0A04204D122F0700E4A6887
:1022C00042EA0E0298421BD0604519D0A84217D0AE
:1022D000B04215D0B84213D0A04211D01A4DA84236
:1022E0000ED01A4DA8420BD0194DA84208D0194D56
:1022F000A84205D0184DA84202D0184DA84203D1DB
:1023000022F44075CA682A434D6922F080022A43AC
:102310008D68C5620D688562984201D0A04201D1E6
:1023200009690163016841F0040101600121416113
:102330000260F0BD000001400004004000080040C1
:10234000000C0040000401400040014000440140F6
:102350000048014000180040001C004000200040E0
:1023600010B5846842EA032224F47F440A432243DE
:10237000826010BD826822F070020A4342F00701B9
:102380008160704710B5036A046A24F00104046296
:10239000846924F0F00444EA021423F00A020A4398
:1023A0008461026210BD10B5036A046A24F010044F
:1023B0000462846923F0A00324F4704444EA0232E6
:1023C00043EA01118261016210BD10B5806B0021EA
:1023D000C185FFF7E3F910BD01680C3151E8002F0A
:1023E00022F4907241E80023002BF5D101681431EA
:1023F00051E8002F22F0010241E80023002BF5D123
:10240000016B012909D101680C3151E8002F22F03C
:10241000100241E80023002BF5D1202180F8421062
:1024200000210163704708B590F84210222901D0BD
:10243000022008BD82684FF480539A4201D101699D
:1024400021B1816A9A421BD04AB10AE00268816ACE
:102450005268C2F308020A80816A891C08E0026996
:1024600072B10268526802F07F020A70816A491CE8
:102470008162C18D491E0904090CC18503D01BE08E
:1024800002685268F1E70168CA6822F02002CA6057
:102490000168CA6822F48072CA6001684A6922F041
:1024A00001024A61202180F8421000214163026B41
:1024B000012A03D0FFF748FB002008BD0163016833
:1024C0000C3151E8002F22F0100241E80023002BCC
:1024D000F5D101680A68D20602D50A6849680091F8
:1024E000818DFFF75AF9E7E770B504460068016986
:1024F000E26821F44051114301612169A068E26959
:1025000008436169114308432168CA6849F20C63B2
:102510009A430243CA6020684169A26921F440716C
:102520001143416131492068884202D030498842D4
:1025300002D1FEF77DFC01E0FEF76AFCE2690023B0
:10254000192164253226B2F5004F626828D0A0FB1D
:102550000101930F9200FDF7E7FE0146B0FBF5F095
:102560006FF01802504301EB800006EB0010B0FB47
:10257000F5F000F0F002B1FBF5F002EB0012B1FB58
:10258000F5F06FF01803584301EB800006EB0010E4
:10259000B0FBF5F000F00F0021681044886070BDBA
:1025A000A0FB010192185B41FDF7BEFE0146B0FBA6
:1025B000F5F00201B1FBF5F06FF01803584301EBA1
:1025C000800006EBC000B0FBF5F000F0F80002EB75
:1025D0004002B1FBF5F0584301EB800006EBC00070
:1025E000B0FBF5F000F00700D6E700000010014056
:1025F000001401402DE9F843984617460D4604465D
:10260000089E24E0701C22D0FEF7C4FAA0EB08005C
:10261000B0421AD8CEB12068C168490717D5802DBD
:1026200015D0402D13D00168C94309070FD40168A4
:102630000025406800902046FFF7CEFE0820606429
:1026400084F840500120BDE8F8830320FBE72068B0
:10265000006835EA000004D00020B842D2D0002043
:10266000F1E70120F9E700000148FFF799B8000001
:1026700020050020FEE70907090E002804DB00F111
:10268000E02080F80014704700F00F0000F1E02017
:1026900080F8141D70470000FEF78AFAFFF796FDD8
:1026A000FFF728FBFFF7B8FBFFF7D8FBFFF7F8FBB6
:1026B000FFF728FCFFF742FCFFF79AFAFFF7CAFA88
:1026C0000948FEF70BFF64231A2208A10E48FFF702
:1026D0003CFAFFF7F1FA00F026F84FF47A7420463E
:1026E00000F01AF8FBE70000D8040020537465706E
:1026F000706572204D6F746F72205461736B20533C
:102700007461727465640A0020050020014600208F
:10271000842900D0C81C704710B500B9012000F012
:1027200023FB002010BD10B500F044FB002010BDBD
:102730007FB50D4604464169B0F9080081B1A16931
:1027400071B1FFF7E3FFD4E905128DE80700D4E982
:1027500000102B46226900F056FC039004B070BDB7
:10276000FFF7D4FF03A9CDE90001208A2B4682B2EE
:10277000D4E9001000F01AFC012801D00020EDE798
:102780000398EBE72DE9F041184C0F460546E66843
:102790002068001D00F020FA38B9206890F82C104D
:1027A00001208840216981432161681C07D137B12C
:1027B0002168BDE8F0410E48091D00F051BA2068BB
:1027C0003544B5424560216805D2A06BBDE8F041B3
:1027D000091D00F02DBA606B091D00F029FAA06AEE
:1027E000854200D2A562BDE8F08100001C000020F7
:1027F0008C0600202DE9F041054600F03DFA2E4CF4
:10280000A068401CA06020682C4F10B1606940B3E4
:102810002DE02560A068012829D1002606EB86005E
:1028200007EB800000F0F6F9761C072EF6D323485C
:102830008C3000F0EFF92148A03000F0EBF91F4890
:10284000B43000F0E7F91D48C83000F0E3F91B4848
:10285000DC3000F0DFF919488C3060631430A0637D
:1028600005E02068E96AC06A884200D82560606A8D
:10287000401C6062E96A012022698840104320619F
:1028800001EB810007EB8000291D00F0E9F900F061
:1028900013FA606900280CD02068E96AC06A88428F
:1028A00007D207494FF080500860BFF34F8FBFF346
:1028B0006F8FBDE8F08100001C000020B0050020F3
:1028C00004ED00E010B5044690F8510058B101281D
:1028D0000CD002280FD0502080F31188BFF34F8F07
:1028E000BFF36F8FFEE7206B00F0FAF92046BDE8DA
:1028F000104000F0F5B910BD10484FF47051420778
:1029000006D0C01D0D4920F00700411AC1F57051D5
:102910000B4A00230144C2E900030839183A21F0A8
:10292000070111604B600B600B1AC0E90013936044
:102930004FF000405360506170470000A006002037
:1029400070000020144E154CA6F1C8074FF08058B7
:10295000DFF84C9012E000BF00F08EF9F068C56817
:10296000281D00F039F9A068401EA0606068401E74
:10297000606000F0A1F92846FFF7A4FF6068002816
:10298000EAD138680128F9D9C9F80080BFF34F8F20
:10299000BFF36F8FF2E70000780600201C000020D4
:1029A00004ED00E02DE9F0479A46DDE9098481460F
:1029B0006FF00303206B03EB82021044089E20F0AB
:1029C0000707780707D0502080F31188BFF34F8F97
:1029D000BFF36F8FFEE7002561B1002023180A5C6A
:1029E00083F834200A5C12B1401C1028F6D384F816
:1029F000435001E084F83450072E00D30626E662E7
:102A0000C4E91165201D00F010F904F1180000F070
:102A10000CF92461C6F107006462A061E56484F8E2
:102A2000505052464946384600F0C0F82060B8F190
:102A3000000F01D0C8F80040BDE8F08730B511495B
:102A400000E011460A688242FBD34B685C1884425E
:102A500003D1406818444860084643681C189442F3
:102A600009D1084C183C2468A24209D052681A4483
:102A700042600A6812680260814200D0086030BD7E
:102A80000460F9E7700000200648416B096829B12D
:102A9000416BC968C9684968816270474FF0FF316E
:102AA000FAE700001C00002008484068401C4FF076
:102AB000500080F3118804D0BFF34F8FBFF36F8FA6
:102AC000FEE7BFF34F8FBFF36F8FFEE77800002064
:102AD0002DE9F0410546002700F0A2F9324E30689A
:102AE00008B9FFF709FF706905424ED1C5B3083533
:102AF00068070ED005F00700C0F10800054468071C
:102B000007D0502080F31188BFF34F8FBFF36F8F32
:102B1000FEE72DB37068854237D823481830014648
:102B20000C6801E020460C466168A94202D2216887
:102B30000029F7D131688C4227D0076821680160ED
:102B400060680837411B10290FD96019420708D067
:102B5000502080F31188BFF34F8FBFF36F8FFEE7D4
:102B600013E041606560FFF769FF61687068401AB3
:102B70007060B268904200D2B0607069014300207A
:102B8000C4E90001F068401CF06000F0DBFA78074F
:102B900007D0502080F31188BFF34F8FBFF36F8FA2
:102BA000FEE73846BDE8F0815800002010B5031F4D
:102BB0004FF080741C601B1F21F001011960191F68
:102BC000044B0B6014390A60091F6FF0020244388D
:102BD0000A6010BDA92A0008D0E9013201699A6093
:102BE000D0E901235A604A68824201D182684A6072
:102BF000002202610868401E0860086870470000F3
:102C0000034B036003F1540008608020106070479C
:102C10004401002000F108014FF0FF32C0E9011229
:102C2000C1600161002101607047002101617047AE
:102C300030B50B685A1C02D000F1080202E00269AC
:102C400004E02246546825689D42FAD953684B60D7
:102C500099608A60516008610168491C016030BD5B
:102C600042684A6093688B6093685960916008611C
:102C70000168491C01607047502080F31188BFF340
:102C80004F8FBFF36F8F0A494868401C4860012886
:102C90000CD10848006810F0FF0F07D0502080F3D7
:102CA0001188BFF34F8FBFF36F8FFEE770470000AF
:102CB0007800002004ED00E00849486828B1401E73
:102CC000486001D180F311887047502080F311884B
:102CD000BFF34F8FBFF36F8FFEE700007800002037
:102CE00070B500282AD0164DA0F108046068696903
:102CF000084207D1502080F31188BFF34F8FBFF3F4
:102D00006F8FFEE722683AB1502080F31188BFF33D
:102D10004F8FBFF36F8FFEE78843606000F080F84D
:102D200060686968084468602046FFF787FE286984
:102D3000401C2861BDE8704000F004BA70BD00007E
:102D4000580000204FF0E020002101618161054919
:102D50004FF47A720968B1FBF2F1491E4161072113
:102D6000016170471800002010B5020014D00F4810
:102D7000006B38B1502080F31188BFF34F8FBFF341
:102D80006F8FFEE700F04CF800211046FFF7FAFCC9
:102D900000F0D8F9002807D105494FF080500860AD
:102DA000BFF34F8FBFF36F8F10BD00001C000020DA
:102DB00004ED00E010B586B00024039405AA04A930
:102DC00003A80494FFF71CFFDDE903010094CDE99B
:102DD000011000230EA11048059A00F014F90F49C4
:102DE0000028C86211D0502080F31188BFF34F8FA4
:102DF000BFF36F8F4FF0FF30886201204861CC60D5
:102E000006B0BDE8104000F041B806B010BD0000AB
:102E100049444C4500000000452900081C000020E2
:102E20000248016B491C0163704700001C00002030
:102E30001448016B11B10121C16170470021C161CA
:102E40000169B1FA81F1C1F11F0101EB81020E4963
:102E500051F822306BB101EB820101F108034A689D
:102E600052684A609A4201D152684A60D168016052
:102E70007047502080F31188BFF34F8FBFF36F8FDF
:102E8000FEE700001C000020B00500201CB53748FC
:102E90000168374A914207D1502080F31188BFF36F
:102EA0004F8FBFF36F8FFEE700683149491E88429C
:102EB00007D1502080F31188BFF34F8FBFF36F8F7E
:102EC000FEE72C4908780190FF20087008788DF8FB
:102ED00000009DF800009DF8002000F0F0009042F6
:102EE00007D0502080F31188BFF34F8FBFF36F8F4F
:102EF000FEE79DF80000204C00F0500020700720F5
:102F0000A06005E09DF8002052008DF80020401ED2
:102F10009DF800201206F5D4A060032807D05020A9
:102F200080F31188BFF34F8FBFF36F8FFEE74FF42D
:102F30004070A060019808700C482030016841F48E
:102F400070010160016841F070410160FFF7FAFE15
:102F500000206060FDF78CF90848016841F04041AD
:102F60000160FDF771F900201CBD000000ED00E0DC
:102F700071C20F4100E400E07800002034EF00E06F
:102F800010B5502080F31188BFF34F8FBFF36F8FC0
:102F900000F072F818B104494FF08050086000202A
:102FA00080F3118810BD000004ED00E02DE9FF5F03
:102FB0008346DDE90E87994616468A469000FFF75C
:102FC00087FD05001CD05420FFF782FD040014D0BB
:102FD0000020256384F85100CDE90240CDE9008747
:102FE0004B46324651465846FFF7DCFC2046FFF779
:102FF00001FC012004B0BDE8F09F2846FFF770FEF9
:103000004FF0FF30F6E7F0B585B0DDE90B640A9DBF
:10301000A6B1DCB1542700972663022684F85160DC
:10302000002604AFCDE90246CDE90057FFF7BAFC10
:103030002046FFF7DFFB049805B0F0BD502080F379
:103040001188BFF34F8FBFF36F8FFEE7502080F3DF
:103050001188BFF34F8FBFF36F8FFEE705484169BB
:1030600019B1006B18B10020704701207047022091
:10307000704700001C0000202DE9F0412F4C002675
:10308000206B28B1A069401CA0613046BDE8F081EA
:10309000E5686D1CE56013D1606B006838B15020A5
:1030A00080F31188BFF34F8FBFF36F8FFEE7606B24
:1030B000A16B6163A063206A401C2062FFF7E4FCFF
:1030C000A06ADFF87C80854209D3606B0068A0B1FC
:1030D000606BC068C7687868854211D2A0622068BA
:1030E000C06A00EB800158F82100012800D90126B0
:1030F000E0690028C9D00126C7E74FF0FF30EDE7AF
:10310000381DFFF769FDB86A18B107F11800FFF71D
:1031100063FDF96A0120226988401043206101EBB8
:10312000810108EB8100391DFFF79AFDF86A2168DB
:10313000C96A8842C9D30126C7E700001C000020E5
:10314000B00500202DE9F0472C4D00242746286BC0
:1031500038B1FFF791FD286B401E2863286B40B102
:1031600046E0502080F31188BFF34F8FBFF36F8F7D
:10317000FEE7A968224E0120D1B3A6F1B40980462A
:103180003068E8B1F068C46804F11800FFF724FD66
:10319000201DFFF721FDE06A2A6908FA00F11143BA
:1031A000296100EB800109EB8100211DFFF758FD2B
:1031B000E06A2968C96A8842E2D3C5F81C80DFE763
:1031C0000CB1FFF761FCAC6944B14646FFF754FF10
:1031D00000B1EE61641EF9D10020A861E86938B140
:1031E0000849012738070860BFF34F8FBFF36F8F7F
:1031F000FFF762FD3846BDE8F08700001C000020A4
:103200006406002004ED00E04FF04070E1EE100A8B
:1032100070470000703200082D21000800000000F7
:10322000000000008000000000000000000000001E
:1032300064320008AD21000800000000000000001A
:10324000000100000000000000000000000000007D
:103250000000000001020304060708090000000046
:10326000010203046D6F746F725461736B00000090
:1032700064656661756C745461736B009C32000800
:103280000000002084000000C40100082033000872
:10329000840000207C480000E001000800000000DD
:1032A000000000000000000001000000100000000D
:1032B000000000000024F4000000000000000000F6
:1032C00000000000000000000000000000000000FE
:1032D00000000000000000000000000000000000EE
:1032E00000000000000000000000000000000000DE
:1032F00000000000000000000000000000000000CE
:1033000000000000000000000000000000000000BD
:103310000000000000000000AAAAAAAA0000000005
:040000050800018965
:00000001FF
