:020000040800F2
:10000000684800205D020008412F00087B25000899
:10001000152B0008610B0008313D000800000000AE
:100020000000000000000000000000009D0100082A
:10003000FD0E000800000000F9010008DD36000890
:1000400077020008770200087702000877020008AC
:10005000770200087702000877020008770200089C
:10006000770200087702000877020008770200088C
:10007000770200087702000877020008770200087C
:10008000770200087702000877020008770200086C
:10009000770200087702000877020008770200085C
:1000A000770200087702000877020008770200084C
:1000B00099370008770200087702000877020008E5
:1000C000770200087702000877020008770200082C
:1000D00077020008393C0008770200087702000820
:1000E000770200087702000877020008770200080C
:1000F00077020008770200087702000877020008FC
:1001000077020008770200087702000877020008EB
:1001100077020008770200087702000877020008DB
:1001200077020008770200087702000877020008CB
:1001300077020008770200087702000877020008BB
:1001400077020008770200087702000877020008AB
:10015000770200087702000877020008770200089B
:10016000770200087702000877020008770200088B
:1001700077020008770200087702000800000000FC
:100180007702000877020008DFF80CD000F03EFB91
:100190000048004795500008684800202C4B19681B
:1001A0000868B0E8F04F80F30988BFF36F8F4FF015
:1001B000000080F3118870470000000008480068C4
:1001C000006880F308884FF0000080F3148862B65E
:1001D00061B6BFF34F8FBFF36F8F00DF00BF00BF6B
:1001E00008ED00E0DFF80C00016841F470010160E7
:1001F000704700BF88ED00E0EFF30980BFF36F8F19
:10020000134B1A681EF0100F08BF20ED108A20E96A
:10021000F04F106009B44FF0500080F31188BFF325
:100220004F8FBFF36F8F05F04BFB4FF0000080F353
:10023000118809BC19680868B0E8F04F1EF0100F6B
:1002400008BFB0EC108A80F30988BFF36F8F704746
:1002500064000020EFF305807047000006488047E7
:1002600006480047FEE7FEE7FEE7FEE7FEE7FEE79B
:10027000FEE7FEE7FEE7FEE7893700088901000890
:100280002DE9F05F0546002092469B4688460646CB
:10029000814640241BE0284641464746224600F05E
:1002A000B2F853465A46C01A914110D31146184627
:1002B000224600F099F82D1A67EB01084F462246B6
:1002C0000120002100F090F817EB00094E41201E9C
:1002D000A4F10104DFDC484631462A464346BDE826
:1002E000F09F000000487047E85F0008A0F161013E
:1002F000192900D82038704740EA01039B0703D032
:1003000009E008C9121F08C0042AFAD203E011F854
:10031000013B00F8013B521EF9D27047D2B201E016
:1003200000F8012B491EFBD270470022F6E710B5FA
:1003300013460A4604461946FFF7F0FF204610BD53
:10034000421C10F8011B0029FBD1801A704710B520
:10035000002200E0521C835C8C5CA34201D1002B84
:10036000F8D1D8B2E1B2401A10BD034611F8012B02
:1003700000F8012B002AF9D11846704770B50646DF
:1003800003F03EFD046805460A220021304600F0D5
:100390004AF82C6070BD00F0004230F000400AD0F6
:1003A000C10D01F56071C0F3160042EA0151C208A7
:1003B00040071143704700200146704730B50B4697
:1003C000014600202022012409E021FA02F59D4285
:1003D00005D303FA02F5491B04FA02F52844151E59
:1003E000A2F10102F1DC30BD202A04DB203A00FA40
:1003F00002F1002070479140C2F1200320FA03F37C
:10040000194390407047202A04DB203A21FA02F079
:100410000021704721FA02F3D040C2F1200291403E
:100420000843194670472DE9F04791460F4680462C
:100430000446002614F8015B2DB1FFF753FF006856
:10044000405DC007F6D12B2D02D02D2D18D0641E93
:100450004A463946204600F0FDF927B13968A142E5
:1004600001D1C7F8008071054FF002040BD540425E
:10047000002803DD03F0C4FC0460A007BDE8F0879A
:1004800046F48066E4E70028F8DA03F0B9FC04607B
:100490006FF00040F2E72DE9FE4F804681EA03004D
:1004A000C00F0C46009021F0004123F00045B8EB4E
:1004B0000200A94105D24046214690461C460B4603
:1004C000024623F00040104347D0270DC7F30A002F
:1004D000C3F30A510290401A019040286BDAC3F32B
:1004E000130040F4801B0098924620B10023D2EB09
:1004F000030A63EB0B0B01985946C0F140025046CA
:10050000FFF772FF06460D4650465946019A00F025
:100510008FF910EB08006141002487EA115284EA48
:10052000E7731A4340D0009A62B3019A012A4FEA56
:10053000075215DC001B61EB02014FF0004202EA9A
:100540000752CDE90042001C41F5801132462B468E
:1005500000F0DEF903B0BDE8F08F40462146F9E730
:10056000001B61EB0201001C41F5801300185B4188
:100570002018A2F5001747EB030140EAD570B61921
:100580006D4111E06D084FEA360645EAC0754FEA45
:100590000752001B61EB0201001C41F58011490864
:1005A0004FEA30000019514132462B4603B0BDE8F6
:1005B000F04F00F09EB90098012240000023D0EBDC
:1005C000020263EBE073009821464FEAE074B8EB57
:1005D000000061EB0401E9E783F000435BE781F091
:1005E000004158E72DE9FE4F81EA030404F000447E
:1005F00021F0004100944FF0000B23F0004350EA3B
:1006000001045ED052EA03045BD0C3F30A54C1F381
:100610000A552C44A4F2F3340194A0FB0254C1F314
:10062000130141F48011C3F3130343F4801301FB5E
:10063000024400FB034E840A970A44EA815447EAC5
:100640008357A4FB076802958D0A05FB07854FEACF
:10065000932C04FB0C542705029D4FEA065847EAE9
:100660001637B5EB08056EEB070C870E920E47EABE
:10067000811742EA8312A7FB0201B6EB0B0164EB80
:1006800000042B0D43EA0C335E1844EB1C50DA4691
:100690005146E7FB0201C5F313044FEA0B3343EA6B
:1006A00014534FEA0432019C43EA0603A4F10C04FC
:1006B0000294009CCDE900B400F02AF903B0BDE833
:1006C000F08F00200146F9E72DE9F04D81EA03049F
:1006D00004F0004B21F0004514464FF0000A23F0CF
:1006E000004150EA050220D054EA01021DD0C5F3B2
:1006F0000A570246C5F31303C1F31300C1F30A56A8
:1007000040F4801543F48013A7EB0608101BD6466F
:1007100008F2FD3873EB050002D308F1010801E08F
:1007200092185B41B8F1000F03DA00200146BDE8E2
:10073000F08D00204FF48011064684460EE0171B12
:1007400073EB050705D3121B63EB050306434CEA65
:10075000010C49084FEA300092185B4150EA01074A
:10076000EDD152EA030012D082EA040083EA0501C7
:10077000084305D0101BAB4106D20122002306E03E
:1007800000224FF0004302E06FF0010253101AEB19
:1007900006004CEB085110EB0A0041EB0B01BDE8E1
:1007A000F04D00F0A6B8C1F30A52C1F3130140F2B4
:1007B000FF3341F480119A4202DA0020014670476B
:1007C00040F233439A42A2F2334202DC5242FFF734
:1007D0001ABEFFF709BE000030B5041E71F1000417
:1007E00004DB4FF00044404264EB0101141E73F13E
:1007F000000405DB1C464FF00043524263EB040348
:10080000994208BF904230BD00207047064C074D0A
:1008100006E0E06840F0010394E8070098471034D0
:10082000AC42F6D3FFF7B4FCB0610008D061000819
:10083000202A06DBCB17203A41FA02F043EAE073A4
:1008400006E041FA02F3D040C2F120029140084391
:10085000194670472DE9F05F82460078002715465B
:100860008B460AF10104B946302801D09DB113E04E
:1008700014F8010B0127782803D0582801D045B17E
:100880000AE00DB1102D07D10027102514F8010B37
:1008900002E0082500E00A250026B0460EE005FB30
:1008A000080005FB06F1012701EB10461FFA80F84E
:1008B000B6F5803F00D3B94614F8010B294600F085
:1008C00075F80028EBDABBF1000F05D00FB1641EFC
:1008D00000E05446CBF80040B9F1000F06D003F019
:1008E0008FFA02210160C81EBDE8F09F48EA064069
:1008F000FAE710B5141E73F1000408DA401C41F148
:10090000000192185B411A4301D120F0010010BD93
:100910002DE9F04D92469B4611B1B1FA81F202E009
:10092000B0FA80F220329046FFF75EFD04460F4693
:1009300040EA0A0041EA0B0153465A46084313D0E5
:10094000114653EA010019D0C8F140025046FFF7A2
:100950005AFD05460E46504659464246FFF744FDAD
:10096000084305D0012004E020463946BDE8F08D5B
:100970000020054346EAE0762C4337430A98630596
:10098000E40AA0EB08000022FD0A44EA47540A30BA
:1009900002D500200146E9E7010510196941DDE9AA
:1009A000084500196941BDE8F04DA2E73A2800D298
:1009B000303820F02002412A01D3A2F137008842CA
:1009C00001D34FF0FF307047464910B54A6822F412
:1009D00040324A604A6843681A434A6001684A687C
:1009E00022F480724A6001684A68036942EA03227D
:1009F0004A6001684A6822F040724A6001684A68A9
:100A000083681A434A6001688A6822F400628A6037
:100A100001688A68C3681A438A60816A6FF07062ED
:100A2000D14201688A6822F070628A6001688A682F
:100A30000CD0836A1A438A6001688A6822F04052A7
:100A40008A6001688A68C36A1A4301E022F0405252
:100A50008A6001688A6822F002028A6001688A68F6
:100A6000037E42EA43028A6090F820100029016860
:100A70004A680FD042F400624A6001684A6822F472
:100A800060424A6001684A68174C436A04EB43338A
:100A90001A4301E022F400624A600168CA6A22F443
:100AA0007002CA620168CA6A838B104C04EB03535C
:100AB0001A43CA6201688A6822F400728A60016877
:100AC0008A6890F8303042EA43228A6001688A6876
:100AD00022F480628A6001688A68406942EA802064
:100AE000886010BD0023014000E0FFFF0000F0FF20
:100AF00010B504462DED028B84B0002002900390C7
:100B00000120CDE900106946204600F0FBF920469F
:100B100000F06EFB0A21204600F014FB002820465E
:100B200007D000F0E3FB9FED0C0A04B0BDEC028B94
:100B300010BD00F08DFA08EE100A204600F0D6FB3A
:100B4000B8EE480AF0EE080A9FED041A60EE200A9B
:100B500080EE810AE9E700000000000000F07F4518
:100B6000FEE70000DFED0B1A30EE600AD0ED000A60
:100B700031EE211ADFED081A60EE810A80EEA11A2B
:100B8000D0ED010A30EE600AC0EE010AB2EE040AAE
:100B900003F0FAB9339388433313954300230722B4
:100BA0000149012002F0FABC985C000810B504224B
:100BB00001230449104602F0F1FCBDE8104002A0F8
:100BC00002F052BF045D0008434C45414E5F4F4B5D
:100BD0000D0A000002490120887002A002F044BF03
:100BE0000000002044454255475F4D4F44455F4F4C
:100BF0004B0D0A0002490020887002A002F034BFA9
:100C00000000002044454255475F4D4F44455F4535
:100C10004E440D0A000000000023012201490B2070
:100C200002F0BCBC7C5D00080023012201490C20BD
:100C300002F0B4BC885D000801A002F015BF0000FE
:100C4000494E56414C494420434D440D0A00000092
:100C500010B50A48FFF774FB10B1084802F004FF12
:100C6000064864300446FFF76BFB002804D020469A
:100C7000BDE8104002F0F8BE10BD0000E800002002
:100C800010B506480446FFF75BFB08B1204600E0BC
:100C900003A0BDE8104002F0E7BE0000B001002054
:100CA0004E4F20534C4F504520444154410D0A00B3
:100CB000002301220149062002F070BC405D0008BB
:100CC00010B501231A460449052002F067FCBDE86F
:100CD000104002A002F0C8BE345D0008504F5745D6
:100CE000525F434C45414E5F4F4B0D0A00000000E0
:100CF0000023012201490A2002F050BC705D000867
:100D0000002301220149092002F048BC645D00086B
:100D1000002301220149072002F040BC4C5D00087D
:100D2000002301220149082002F038BC585D000868
:100D3000F0B52DED028B89B007AB06AA05A904A872
:100D400002F056FC0698FFF726FB06460F4605986C
:100D5000FFF721FB04460D460498FFF71CFB8DE8C6
:100D6000F00041EC100B19A053EC102B02F048FEE0
:100D70009DED060A9FED1D8A30EE480A10EE100A1E
:100D8000FFF709FB9DED050ADFED190A06460F4640
:100D900030EE200A10EE100AFFF7FDFA9DED040A6E
:100DA00004460D4630EE480A10EE100AFFF7F3FA3B
:100DB0008DE8F00041EC100B04A053EC102B02F076
:100DC0001FFE09B0BDEC028BF0BD00004D565F4E1A
:100DD000612025362E3266204B2025362E326620A5
:100DE000436C2025362E32660D0A00000AD7A33C3C
:100DF0000AD7233C10B501231A460449022002F009
:100E0000CDFBBDE8104002A002F02EBEEC5C000855
:100E100053414D504C455F4F4B0D0A0070B5184C77
:100E20002078012804D0BDE8704016A002F01CBE56
:100E30006078002502280AD003280AD004280CD0A4
:100E4000052819D017A002F00FFE257070BD1D48AF
:100E500001E01C480C30012102E01A48183004213E
:100E6000022222706560C4E90401406800B1804735
:100E700000F0CEFBA06070BD12484830EBE70000E8
:100E8000D00000204552524F52204E4F542057411F
:100E90004954494E4720464F522053544152540D15
:100EA0000A0000004552524F52204E4F2050454EEE
:100EB00044494E47204F5045524154494F4E0D0A28
:100EC00000000000EC5C000810B501231A4604493C
:100ED000032002F063FBBDE8104002A002F0C4BD95
:100EE000F85C00085552494E455F4F4B0D0A000013
:100EF0000148C06802F0B8BD00000020704772B61B
:100F0000FEE7000078B50024009490F83C20012A08
:100F100019D0012280F83C200A6807230568092AB5
:100F200013D9EE680A3A02EB420293409E43EE6008
:100F30000B788A680A3B03EB43039A400368DD6839
:100F40002A43DA6010E0022078BD2E6902EB4202EB
:100F500093409E432E610B788A6803EB43039A40CB
:100F600003681D692A431A614A681F23072A13D29E
:100F700005686E6B521E02EB820293409E436E63C5
:100F80000B790A885B1E92B203EB83039A400368D5
:100F90005D6B2A435A6327E005680D2A12D22E6B37
:100FA000D21F02EB820293409E432E630B790A8884
:100FB000DB1F92B203EB83039A4003681D6B2A4345
:100FC0001A6311E0EE6A0D3A02EB820293409E43EF
:100FD000EE620B790A880D3B92B203EB83039A40D1
:100FE0000368DD6A2A43DA62164B0568144A9D429B
:100FF00006D10D68122D03D1556845F48005556062
:1010000005689D4218D10B68102B01D0112B13D10C
:10101000536843F400035360096810290CD10A494E
:101020000A4A0968B1FBF2F101EB8101490000E0D5
:10103000491E00910029FBD180F83C40002078BD7A
:1010400000230140002001406000002040420F00CA
:101050000068C06C704770B504004FF0000503D005
:10106000206C002610B107E0012070BD204600F082
:101070001DF8666484F83C60206CC00610D4206CB7
:1010800020F4885040F0020020642046FFF79CFCCA
:101090006664206C20F0020040F00100206400E053
:1010A000012584F83C60284670BD000070B586B00C
:1010B000044614216846FFF738F91E491C4E25687E
:1010C00000221C4814390F230324B54213D10568AC
:1010D00045F480750560006800F48070059008682C
:1010E00040F0040008600868009300F004000590D8
:1010F0006946114815E0114EB54216D1056845F410
:1011000000750560006800F400700590086840F004
:10111000010008600868009300F00100059008488D
:101120006946CDE9014200F06DF906B070BD0000DE
:1011300000200140443802400008024000210140E4
:10114000000002402DE9F041044600680D46816828
:101150004FF0000749050BD58068C00508D5206C05
:1011600040F02000206484F83C700120BDE8F0814C
:1011700000F04EFA064613E0681C11D025B100F0CD
:1011800047FA801BA8420BD920680068800707D463
:10119000206C40F00400206484F83C700320E5E7F4
:1011A000206800688007E7D521686FF012000860AA
:1011B000206C40F4007020642068816811F0405F6A
:1011C00013D1217E89B9C16A11F4700F02D08068F1
:1011D00040050AD4206C20F480702064206CC00488
:1011E00003D4206C40F0010020640020BEE7000022
:1011F00018B50021009190F83C20012A07D0012267
:1012000080F83C2002689368DB0702D011E00220DE
:1012100018BD936843F0010393602E4A2E4B126869
:10122000B2FBF3F202EB420200E0521E0092002AEF
:10123000FBD102689368DB0742D0036C40F2016483
:10124000A34343F48073036453685B0505D5036CC3
:1012500023F4005343F480530364036CDB0404D58C
:10126000436C23F00603436400E0416480F83C10C3
:101270001A496FF02203136049680068CA061849CA
:1012800006D0884224D1816811F0405F13D01FE05E
:101290008842F8D0134A904203D1D1F80423D206F1
:1012A000F1D0114A904213D1D1F8041301F01F017B
:1012B0001029E8D30CE0816841F08041816007E0AB
:1012C000016C41F010010164416C41F00101416485
:1012D000002018BD6000002040420F0000230140A4
:1012E00000200140002101400022014090F83C1004
:1012F00001290CD0012180F83C1001688A6822F095
:1013000001028A6001688968C90702D007E00220EB
:101310007047016C21F4885141F001010164002102
:1013200080F83C10084670472DE9F0410446876D6F
:1013300000F06EF9064694F835000025022806D024
:101340008020606584F834500120BDE8F081206879
:10135000016821F0160101602068416921F08001D7
:101360004161206C08B9A06C20B12068016821F0AF
:10137000080101602068016821F0010101600CE0B2
:1013800000F046F9801B052807D92020606503205E
:1013900084F8350084F83450D7E720680068C00727
:1013A000EED194F85C103F208840B860012084F8AA
:1013B000350084F834500020C7E790F83510022932
:1013C00003D08021416501207047052180F8351048
:1013D0000068016821F001010160002070470000F1
:1013E00070B5044600F014F90546601C02D00448AC
:1013F0000078044400F00CF9401BA042FAD370BD01
:10140000540000202DE9F84FDFF8BCA1002201258F
:1014100003264FF00F090AF1040BAAF1040E00BFD6
:101420000B6805FA02F42340A34270D10F7907F04C
:101430000307012F01D0022F16D187684FEA420817
:1014400006FA08FC27EA0C07D1F80CC00CFA08FCD5
:101450004CEA070CC0F808C04768A7430C79C4F3EE
:10146000001494403C4344600C79E443A4070AD040
:10147000C4684FEA420C06FA0CF7BC438F6807FABF
:101480000CF72743C7600C7904F00304022C12D137
:10149000D40800EB840CDCF820405707FF0E09FA53
:1014A00007F824EA0804D1F8108008FA07F848EA97
:1014B0000408CCF8208004684FEA420C06FA0CF7C6
:1014C000BC430F7907F0030707FA0CF727430760BF
:1014D0004C6814F4403F70D03C4C276847F4804778
:1014E0002760246822F0030704F480440094384CF9
:1014F00007EB040CDCF8084897074FEA177809FA5D
:1015000008F7BC43334FB84202D1002724E054E02F
:10151000314FB84201D101271EE0304FB84201D10E
:10152000022719E02E4FB84201D1032714E02D4FB6
:10153000B84201D104270FE02B4FB84201D1052753
:101540000AE02A4FB84201D1062705E0284FB842E9
:1015500001D1072700E0082707FA08F72743CCF84E
:101560000878DAF800405746D1F804C09C435FEA97
:10157000CC2C00D51C433C60DBF800405F46D1F822
:1015800004C09C435FEA8C2C00D51C433C60DEF811
:1015900000407746D1F804C09C435FEA8C3C00D5FC
:1015A0001C433C60084F083F3C68D1F804C09C4392
:1015B0005FEACC3C00D51C433C60521C102AFFF46F
:1015C0002FAFBDE8F88F0000083C014044380240CE
:1015D00000300140000002400004024000080240C8
:1015E000000C0240001002400014024000180240AB
:1015F000001C0240426921EA02030A4043EA024118
:10160000816170470AB1816170470904FBE70000FE
:10161000014880687047000054000020024881683B
:101620000278114481607047540000200B4810B5C7
:10163000016841F400710160016841F4806101605A
:10164000016841F480710160032000F073F80F20FD
:1016500000F006F800F024F8002010BD003C024025
:1016600070B50D4D04464FF47A712878B1FBF0F057
:101670000A490968B1FBF0F000F0C6FB48B9102C2C
:1016800007D200222146501E00F034F800206C6082
:1016900070BD012070BD00005400002060000020DB
:1016A0000C4882B0016841F480410160006800F498
:1016B000804000900748001F016841F080510160A0
:1016C0000068002200F0805000900F21901E02B0B0
:1016D00000F010B844380240002809DB00F01F0277
:1016E000012191404009800000F1E020C0F8001184
:1016F00070470000F0B40E4B1B680C46C3F3022386
:10170000C3F10705042D00D90425191D072901D2AD
:10171000002300E0DB1E012606FA05F1491E2140E8
:1017200099409E40761E16403143F0BC02F057BBF4
:101730000CED00E0064900F0070208684FF6FF03D1
:10174000184040EA0220034A104308607047000036
:101750000CED00E00000FA052DE9F0470E4605000B
:1017600065D0DFF81481D8F80000F7B200F0070068
:10177000B04207D288F80070D8F8000000F00700E7
:10178000B04254D128683D4C810712D5400703D59B
:10179000206840F4E05020602878000703D52068D6
:1017A00040F4604020602068A96820F0F000084301
:1017B00020602878C0072DD0304968680839012892
:1017C00012D0022813D0032811D0096889070029F4
:1017D0002DDA216821F0030101432160FFF718FF92
:1017E000814641F2883A0EE009688903EFE709680B
:1017F0008901ECE7FFF70CFFA0EB0901514502D985
:101800000320BDE8F0872068696800F00C00B0EBA9
:10181000810FEFD1D8F80010404601F00701B14226
:1018200007D90770006800F00700B04201D001201E
:10183000E7E72878400705D52068E96820F4E050FC
:10184000084320602878000706D52068296920F41D
:10185000604040EAC100206000F038F82168084A82
:10186000C1F30311515CC84006490860064800688E
:10187000FFF7F6FE0020C4E7003C024008380240B3
:10188000CC5D000860000020580000200448054995
:1018900000680968044AC1F38221515CC84070475E
:1018A0006000002008380240DC5D0008044805495B
:1018B00000680968044AC1F34231515CC84070476E
:1018C0006000002008380240DC5D0008154810B5B3
:1018D000006810F00C02144813D01449042A0FD0E9
:1018E000082A0ED10F4C241F2268236802F03F0201
:1018F0005B0207D52068C0F38810A0FB010106E059
:10190000084610BD2168C1F38811A1FB0001002326
:10191000FEF7B6FC2168C1F30141491C4900B0FB48
:10192000F1F010BD083802400024F400001BB7009D
:101930002DE9F84F04006ED02078DFF84C93C007F3
:10194000A9F104054AD009F104000168C1F381013D
:10195000012908D00068C0F3810002280AD1D9F813
:101960000000400206D52868800337D5606800284B
:10197000E1D033E06068B0F5803F10D0B0F5A02F23
:10198000286810D020F480302860286820F4802057
:1019900028606068A8B1FFF73BFE06460DE02868A6
:1019A00040F48030F4E740F480202860F7E700BF7F
:1019B000FFF72EFE801B642873D828688003F7D5B4
:1019C0000CE0FFF725FE064605E000BFFFF720FE0E
:1019D000801B6428F0D828688003F7D42078DFF8CB
:1019E000AC8280074FF0000A3ED5A748001D016871
:1019F00011F00C0F08D00068C0F3810002280BD151
:101A0000D9F80000400207D42868800716D5E0689E
:101A1000012800D112E033E1E068B8B10120C8F834
:101A20000000FFF7F5FD064605E000BFFFF7F0FDFB
:101A3000801B0228C0D828688007F7D5286821694C
:101A400020F0F80040EAC10028600DE0C8F800A0CE
:101A5000FFF7DEFD064604E0FFF7DAFD801B0228F3
:101A60001FD828688007F7D42078000722D5864F32
:101A700087486169703771B101210160FFF7C8FDC6
:101A8000064604E0FFF7C4FD801B022809D8386829
:101A90008007F7D50EE0C0F800A0FFF7B9FD0646B5
:101AA00005E082E0FFF7B4FD801B02287DD838688E
:101AB0008007F7D42078400768D5DFF8CCB100273D
:101AC0000BF13C0BDBF80000C0000BD4DBF800107E
:101AD00041F08051CBF80010DBF80000012700F046
:101AE000805000906B4E3068C00510D4306840F4D0
:101AF00080703060FFF78CFD009005E0FFF788FDF7
:101B00000099401A022850D83068C005F6D55E4EBC
:101B1000A0686C3601280FD00528306810D020F05E
:101B200001003060306820F004003060A068B8B177
:101B3000FFF76EFD00900FE0306840F00100F4E721
:101B400040F004003060F7E7FFF762FD0099411AAA
:101B500041F28830814266D830688007F4D50EE0C3
:101B6000FFF756FD009007E0FFF752FD0099411A7C
:101B700041F28830814256D830688007F4D42FB1C2
:101B8000DBF8001021F08051CBF80010A069C8B339
:101B90003D49091D0968C1F3810102294AD0022883
:101BA000504607D0C8F8600000E03CE0FFF730FD89
:101BB00004463BE04746C8F86000FFF729FD0646AB
:101BC00005E000BFFFF724FD801B02282BD8286802
:101BD0008001F7D4D4E907010843A16A2E4A4908D5
:101BE00002EB0141626A41EA8211084394F82C1029
:101BF00040EA0161C9F8001001203866FFF708FDCE
:101C0000044606E03EE000BFFFF702FD001B02288D
:101C100009D828688001F7D534E000BFFFF7F8FC49
:101C2000001B022802D90320BDE8F88F2868800134
:101C3000F4D427E00128F7D0D9F80000E26900F4D5
:101C4000800191421CD1226A00F03F01914217D1DC
:101C500047F6C071626A0140B1EB821F10D1A26ADF
:101C60004FF0FF3300F4403103EB5202B1EB024F6F
:101C700006D194F82C1000F07060B0EB016F01D029
:101C80000120D1E70020CFE704380240000047429E
:101C9000800E4742007000400000FFFF70B5040056
:101CA00009D0606A002540B125616561A56294F89C
:101CB000510040B10CE0012070BD6068B0F5827F3A
:101CC000F4D0E561F2E784F85050204600F044F883
:101CD000022084F851002068016821F04001016071
:101CE000A088218900F4827001F404410843A1898D
:101CF00001F400610843217C01F002010843217DC9
:101D000001F001010843218B01F400710843217F98
:101D100001F03801084394F8201001F080010843D5
:101D2000218D01F40051084321680860A069042155
:101D300001EA104094F8241001F0100108432168D2
:101D400048602068C16921F40061C16165650120B6
:101D500084F85100002070BD70B586B0044614218F
:101D60006846FEF7E2FA234E226800212248022349
:101D700003240525B2421AD11F4A1432166846F4CC
:101D800080561660126802F480520592026842F092
:101D900001020260006802AA00F00100059082E8DA
:101DA0003200E020CDE90003694614481DE0144EDE
:101DB000B2421CD1104A1032166846F480461660B2
:101DC000126802F480420592026842F00202026048
:101DD000006802AA00F00200059082E832004FF489
:101DE0006040CDE9000369460648FFF70BFB06B0EB
:101DF00070BD000000300140303802400000024059
:101E0000003800400004024010B5401EB0F1807F51
:101E100001D3012010BD4FF0E02460610F21601755
:101E200001F0DDFF0020A06107202061002010BD2F
:101E300070B590F83C20012A32D0012480F83C4053
:101E4000022280F83D2003685A689D6822F07006DF
:101E50000A6832435A60134B02689A4214D0B2F1B6
:101E6000804F11D0104B9A420ED0104B9A420BD09B
:101E70000F4B9A4208D00F4B9A4205D00E4B9A4214
:101E800002D00E4B9A4204D1496825F080031943D1
:101E9000916080F83D40002180F83C10084670BDFC
:101EA000022070BD00000140000400400008004016
:101EB000000C0040000401400040014000180040B8
:101EC00010B5040003D094F83D0010B107E00120E4
:101ED00010BD002084F83C00204600F01FF80220CE
:101EE00084F83D00211D206801F05EFC012084F88B
:101EF000460084F83E0084F83F0084F8400084F8EF
:101F0000410084F8420084F8430084F8440084F8D7
:101F1000450084F83D00002010BD000008B50068B1
:101F2000B0F1804F12D10A48016841F0010101600F
:101F30000068002200F00100009005211C20FFF73E
:101F4000D9FBBDE808401C20FFF7C6BB08BD000058
:101F50004038024090F83D10012901D0012070471F
:101F6000022180F83D100168CA6842F00102CA608F
:101F700000681149884214D0B0F1804F11D00F4948
:101F800088420ED00E4988420BD00E49884208D0B4
:101F90000D49884205D00D49884202D00C4988423B
:101FA00004D1816801F00701062903D0016841F0DE
:101FB0000101016000207047000001400004004062
:101FC00000080040000C00400004014000400140B7
:101FD0000018004070B5044690F83C000025012828
:101FE00017D0012684F83C60022084F83D00206868
:101FF000826822F0770222F47F42826008685028CB
:1020000038D00DDC20284FD005DC90B3102811D13A
:102010004AE0022070BD302846D040280AD13BE07B
:1020200060282FD070280DD0B0F5805F03D0B0F5B8
:10203000005F12D0012584F83D60002084F83C0048
:10204000284670BDCB68D1E90121206801F014FC5D
:102050002068816841F0770109E0CB68D1E901216E
:10206000206801F009FC2068816841F480418160AA
:10207000E1E719E0CA684968206801F00FFC5021C7
:10208000206806E0CA684968206801F018FC6021F1
:10209000206801F0FBFBCEE7CA684968206801F0C0
:1020A000FDFB40212068F4E7226801461046F0E776
:1020B00070477047F8B5016804460868CA684B69FC
:1020C00010F00F0F4FF0000559D003F0010602F495
:1020D0009077374365D0C10705D0D10503D5616C32
:1020E00041F001016164410705D5D90703D0616C56
:1020F00041F002016164810705D5D90703D0616C05
:1021000041F004016164010707D502F02001314369
:1021100003D0616C41F008016164616C00293AD020
:10212000800604D5900602D5204601F008FC206800
:102130004069616CC0F38010090700D460B3204689
:1021400001F0D6FB20684069400621D52068143094
:1021500050E8001F21F0400140E80012002AF5D1AC
:10216000E06BA8B172490165E06BFFF726F9002822
:1021700011D0E06B016D01B0BDE8F0400847830667
:102180000FD593060DD52046BDE8F84001F0D7BB2A
:102190002046FFF78EFFF8BD2046FFF78AFF6564F3
:1021A000F8BD266B2023012E7ED1C6067CD5D6062F
:1021B0007AD508684868009048694FF002064006E2
:1021C0004DD5E26B106840684FF480770004000C36
:1021D0003AD0A18D814237D9E085D069B8422DD05F
:1021E00020680C3050E8001F21F4807140E8001294
:1021F000002AF5D12068143050E8001F21F00101B9
:1022000040E80012002AF5D12068143050E8001F81
:1022100021F0400140E80012002AF5D184F8423054
:10222000256320680C3050E8001F21F0100140E8C1
:102230000012002AF5D1E06BFFF776F86663A08DF7
:10224000E18D401A81B206E0A18D8142A8D1D0690A
:10225000B842A5D166632046FFF72AFFF8BDA08DDE
:10226000E18D401A81B2E08D0028F7D00029F5D029
:1022700020680C3050E8002F22F4907240E80027CC
:10228000002FF5D12068143050E8002F22F0010211
:1022900040E80027002FF5D184F8423025632068FC
:1022A0000C3050E8002F00E006E022F0100240E879
:1022B0000023002BF3D1CDE705062BD5150629D534
:1022C00094F841002128C9D1A068B0F5805F01D100
:1022D0002069B0B1206A411C216221680078486001
:1022E000E08C401E0004000CE084B7D12068C16877
:1022F00021F08001C1602068C16841F04001C160E7
:10230000F8BD206A0088C0F308004860206A801C7D
:102310002062E5E74006F3D55006F1D5CA682046AD
:1023200022F04002CA6084F8413000F025F9F8BD7F
:10233000E338000870B5040004D094F8410000258B
:1023400010B106E0012070BD84F84050204600F036
:1023500023F8242084F841002068C16821F400514A
:10236000C160204601F08EFB2068016921F4904194
:1023700001612068416921F02A0141612068C1683A
:1023800041F40051C1606564202084F8410084F864
:1023900042006563002070BD70B586B0044614210C
:1023A0006846FDF7C2FF284E226800212748022315
:1023B00003240725B24225D1244A1432166846F078
:1023C00010061660126802F010020592026842F0D0
:1023D00001020260006802AA00F00100059082E894
:1023E00032006002CDE9000369461948FFF70AF898
:1023F000002205212520FFF77DF92520FFF76CF944
:1024000006B070BD134EB242FAD1104A10321668AF
:1024100046F480261660126802F480220592026853
:1024200042F008020260006802AA00F0080005906D
:1024300082E832004FF44070CDE900036946064857
:10244000FEF7E0FFDCE700000010014030380240FA
:102450000000024000480040000C024090F842306A
:10246000202B01D00220704721B11AB10023036351
:1024700001F08EBB0120704770B500681249884298
:1024800020D1124C002520783F2812D22179104A01
:102490000A2905D00D2903D01154401C207009E0F1
:1024A00040B10B49155401F14000FDF75EFF0120DA
:1024B00060702570BDE8704004490122091D05487F
:1024C000FFF7CCBF70BD00000010014000000020ED
:1024D0008C020020E80600202DE9F843044690F81D
:1024E0004100984616460D46202802D00220BDE83D
:1024F000F88385B17EB100206064212084F841001A
:10250000FFF786F8A6848146E684A0682027B0F508
:10251000805F02D003E00120E9E7206910B12E4678
:1025200000250EE000260CE08021204601F04BFB48
:10253000A8B9C6B116F8010B21684860E08C401EAE
:10254000E084E08C4B464FF00002CDF8008000287C
:10255000EAD14FF04001204601F035FB40B184F84C
:1025600041700320C3E735F8020BC0F30800E3E72E
:1025700084F841700020BAE77047FEE77FB5002479
:1025800015480094019402941249039401600125B6
:102590004FF480310561C0E90114057680F82040D0
:1025A0000E49C0E90A14C561C46080F83040456135
:1025B000FEF751FD08B1FEF7A2FC0B20CDE90005A6
:1025C000694602940448FEF79DFC002801D0FEF7FE
:1025D00096FC7FBD00200140600500200100000F37
:1025E0007FB5002415480094019402941249039485
:1025F000016001254FF480310561C0E901140576C1
:1026000080F820400E49C0E90A14C561C46080F812
:1026100030404561FEF71FFD08B1FEF770FCCDE9C3
:102620000045694605480294FEF76CFC002801D07D
:10263000FEF765FC7FBD000000210140A8050020D9
:102640000100000F10B58EB01C220B496846FDF743
:1026500053FE0021684602F0B3FD084C06491C22D7
:1026600020601C3107A8FDF747FE002107A802F0F3
:10267000A7FD60600EB010BD945D00084C00002006
:102680002DE9F04F87B014216846FDF74EFE3F4814
:102690000024016841F010010160016801F010019F
:1026A0000591016841F004010160016801F0040135
:1026B0000591016841F001010160016801F001012B
:1026C0000591016841F002010160016801F0020119
:1026D0000591016841F0080101600068DFF8B0A0D1
:1026E00000F0080049F610150590002229465046D2
:1026F000FEF788FFDFF89CB041F6F0760022314605
:102700005846FEF77FFF4FF4004700223946224823
:10271000FEF778FF4FF4C058002241461F48FEF7ED
:1027200071FF4FF60F09002249461D48FEF76AFF68
:1027300000950125CDE90154694650460394FEF702
:1027400061FE0096CDE90154694658460394FEF7B0
:1027500059FE0097CDE9015469460F480394FEF7EE
:1027600051FECDF80080CDE9015469460B48039431
:10277000FEF748FECDF80090CDE9015469460848BF
:102780000394FEF73FFE07B0BDE8F08F30380240FB
:102790000000024000080240001002400004024015
:1027A000000C02400F4810B50D4901604FF48271D2
:1027B000416000218160C1604FF400720161C0E995
:1027C0000512C1610162416281620A21C162FFF7A3
:1027D00065FA002803D0BDE81040FEF790BB10BD9D
:1027E00000300140F00500200F4810B50D49016090
:1027F0004FF48271416000218160C1604FF400722A
:102800000161C0E90512C1610162416281620A2170
:10281000C162FFF743FA002803D0BDE81040FEF77D
:102820006EBB10BD003800404806002010B586B0D1
:1028300000241648009401940294039404944FF0E9
:102840008041059401601B21C0E90114EF21C0E91A
:10285000031480218161FFF733FB08B1FEF74FFBC2
:102860004FF48050009069460848FFF7B3FB08B169
:10287000FEF745FB049404A904480594FFF7D8FA31
:10288000002801D0FEF73BFB06B010BDA0060020DB
:102890000C4810B50A4901604FF49641416000218F
:1028A00081600C22C160C0E904128161C161FFF73F
:1028B00041FD002803D0BDE81040FEF720BB10BD4D
:1028C00000100140E80600200C4810B50A490160DC
:1028D0004FF4E1314160002181600C22C160C0E908
:1028E00004128161C161FFF725FD002803D0BDE816
:1028F0001040FEF704BB10BD004800403007002028
:102900002DE9F04114462DED048B0D468046012340
:1029100088B01A464FF47A51002000F0BFF943F610
:102920009820FEF75DFD04AB06AA05A907A800F0F4
:102930005FFE00F08FFEF0EE408A002D4DD0514832
:10294000012C02D0022C24D037E0DDED070A9DEDEA
:10295000040A012170EEC00AC0ED040ADDED050A8B
:1029600070EEC00AC0ED050ADDED060A30EEC00AC1
:1029700080ED060AC1709FED440B8DED020B9FEDBB
:10298000440B8DED000B9FED440B45A053EC102B39
:1029900020E0DDED070A9DED040A70EEC00AC0EDEF
:1029A000070ADDED050A70EEC00AC0ED080ADDED8C
:1029B000060A30EEC00A80ED090A9FED410B8DED4D
:1029C000020B9FED410B8DED000B9FED410B42A0E3
:1029D00053EC102B01F014F848E02A48B0EE681AC6
:1029E0002830DDED040A9DED070AFEF7BBF8254807
:1029F000B0EE409AB0EE681A3430DDED040A9DED79
:102A0000050AFEF7AFF81F48B0EE408AB0EE681A2C
:102A10004030DDED040A9DED060AFEF7A3F8F0EE66
:102A2000408A18EE900AFDF7B6FC06460F4618EEEF
:102A3000100AFDF7B0FC0446B0EE490A0D4610EE50
:102A4000100AFDF7A8FC41EC100B8DE8F00053ECE8
:102A5000102B414628A000F0D3FFB0EE681AF0EE2C
:102A6000480AB0EE490A404601F0ECF80023012282
:102A70004FF49651184600F011F908B0BDEC048BE4
:102A8000BDE8F08100000020000000000000594077
:102A900000000000000010400000000000806140C5
:102AA000312D43414C5F4E6120252E3266204B2054
:102AB000252E326620436C20252E32660D0A00003A
:102AC0000000000000004E40000000000000004038
:102AD0000000000000005440322D43414C5F4E6125
:102AE00020252E3266204B20252E326620436C2076
:102AF000252E32660D0A0000257320252E32662011
:102B00004B20252E326620436C20252E32660D0A7E
:102B100000000000FEE7000003280CD2064A00EB8C
:102B2000800002EBC00021B10022818A0069FEF71B
:102B300069BD0122F9E770471402002010B5044670
:102B4000032844D2224904EB840001EBC00221494E
:102B500024B1012C0BD0022C13D12EE040201160A7
:102B600090808000916090818020116108E01A4877
:102B70001060831493809160011591811061480168
:102B8000908200209061D06182F82000012082F8BC
:102B9000210014205062918810680022FEF732FD57
:102BA0000121204600F07AF900212046FFF7B4FF0A
:102BB000BDE810400A20FEF713BC0848022110604F
:102BC000918008219060918110610420D8E710BDA8
:102BD000140200200008024000000240000C0240E5
:102BE00070B51F4C0122D1032046FEF70BFD0122D8
:102BF00091032046FEF706FD00224FF400512046C7
:102C0000FEF700FD0122174ED50229463046FEF799
:102C1000F9FC012211023046FEF7F4FC124E0022AC
:102C200061153046FEF7EEFC012211462046FEF704
:102C3000E9FC012211033046FEF7E4FC002229469C
:102C40003046FEF7DFFC6420FEF7CAFB0024204676
:102C5000FFF774FF641CE4B2032CF8D370BD0000CE
:102C6000000C0240000002400008024070B5040061
:102C700000D1012200F024F9074904EB84004FF44D
:102C80007A7501EBC00402E0284602F08DFA94F850
:102C900020000028F8D170BD140200202DE9F04179
:102CA0003E4C1E462DED028B82B0050012D000F086
:102CB00007F905EB850004EBC00402E0012002F0F7
:102CC00073FA94F820000028F8D102B0BDEC028B12
:102CD000BDE8F0810122002000F0F2F83EB10027AB
:102CE0003D464FF4FA683DE0012002F05DFA94F8A9
:102CF00020000028F8D1E8E70C212948FDF7F8FE6C
:102D000010EE100AB0EE408AB0F17E5F01DA0126C3
:102D100000E0002618EE100AFDF73DFBDFED211A5A
:102D200041EC100B88EE211ADFED1F1A21EE211A5B
:102D3000BDEEC11A11EE101A0EB11CA000E01DA0CC
:102D4000009053EC102B1EA000F05AFE0FB1D6B12C
:102D500004E01EB1012724A000F086FE0A2002F044
:102D600023FA6D1C94F820000028AED04545C3D34B
:102D7000002000F0C1F802B025A0BDEC028BBDE838
:102D8000F04100F071BE002000F0B6F827A000F07E
:102D90006BFE94F820000028EAD196E71402002088
:102DA000600500203333534000F07F454C495155B6
:102DB000494400004E4F204C495155494400000001
:102DC0004144433A207261773D25642C20766F6C34
:102DD000746167653D252E326620562C2073746120
:102DE00074653D25730D0A004C6971756964206432
:102DF000657465637465642C20636F6E74696E75A9
:102E000065206D6F76696E672E2E2E0D0A0000000C
:102E10004D6F746F722073746F7070656420627987
:102E20002074696D656F75742E0D0A004C6971759B
:102E3000696420656D7074792C206D6F746F7220D9
:102E400073746F707065642E0D0A000070B5124EB9
:102E5000002500BF05EB850006EBC00494F82000B8
:102E6000A0B1D4E90601814210D2A1882068FEF702
:102E7000C1FBE069401CE061A169884206D30020E3
:102E800084F8200001462846FFF746FE6D1CEDB28F
:102E9000032DDFD370BD00001402002003280CD2E4
:102EA000064A00EB800002EBC00009B1012200E0FD
:102EB000002281898068FEF7A5BB704714020020BC
:102EC00010B50446032814D20A4B04EB840003EB2C
:102ED000C0030020E3E9061001205A72187211465F
:102EE0002046FFF7DBFF2046BDE810400121FFF739
:102EF00013BE10BD1402002010B5032812D20A4AD6
:102F000000EB800102EBC104002184F82010A161D4
:102F1000E161FFF701FEA1882068BDE810400022B2
:102F2000FEF770BB10BD00001402002010B5002495
:102F30002046FFF7E1FF641CE4B2032CF8D310BD78
:102F4000FEE700002DE9F041044600E0641C207813
:102F50002028FBD02046FDF7F3F920440022401E34
:102F600002E000BF00F80129A04206D9017820291B
:102F7000F8D00D29F6D00A29F4D08EA12046FDF70D
:102F8000E6F9002833D08DA12046FDF7E0F90028AE
:102F900031D08DA12046FDF7DAF980B38DA120460E
:102FA000FDF7D5F978B38DA12046FDF7D0F970B3C0
:102FB0008CA12046FDF7CBF968B38DA12046FDF723
:102FC000C6F960B320784D282DD06D282BD08B4DBD
:102FD000287800287AD08AA12046FDF7B8F9002881
:102FE0006AD02146BDE8F04187A000F009BDBDE8E8
:102FF000F041FDF77DBFBDE8F041FDF729BEBDE81A
:10300000F041FDF73DBEBDE8F041FDF791BEBDE8E2
:10301000F041FDF711BEBDE8F041FDF7DBBDBDE8B5
:10302000F041FDF7E7BD60783038032801D37BA07D
:103030008CE000F0FF08A078FDF758F9C5B2532DD9
:1030400005D0462D0DD0522D0BD078A07EE0404605
:10305000FFF752FF4146BDE8F041002278A000F0A2
:10306000DFBCE41C264608E0FDF73CF90068C05DC3
:10307000202801D074A069E0641C2778002FF3D1C8
:103080003046FDF77BF904000AD0462D0AD0002512
:1030900001462A464046FFF713FF2DB16EA204E019
:1030A0006FA053E00125F3E770A223464146BDE837
:1030B000F04170A000F0A4BC2878012802D071A0D3
:1030C00044E003E0BDE8F041FDF7A8BE75A120464D
:1030D000FDF73DF900283DD073A12046FDF737F9F3
:1030E00000283BD072A12046FDF731F9002839D0E5
:1030F00071A12046FDF72BF9C0B371A12046FDF761
:1031000026F9B8B371A12046FDF721F9B0B371A13A
:103110002046FDF71CF9A8B371A12046FDF717F969
:10312000A0B372A12046FDF712F998B372A1204610
:10313000FDF70DF990B374A12046FDF708F988B3A7
:1031400074A12046FDF703F980B375A0BDE8F041F6
:1031500000F08ABCBDE8F041FDF720BDBDE8F041BC
:10316000FDF748BEBDE8F041FDF7AEBEBDE8F04159
:10317000FDF71CBDBDE8F041FDF7A2BDBDE8F04183
:10318000FDF796BDBDE8F041FDF7C2BDBDE8F041D9
:10319000FDF7C6BDBDE8F041FDF7B2BDBDE8F041A9
:1031A000FDF7A6BDBDE8F041FDF736BDBDE8F04135
:1031B000FDF73ABD56455253494F4E004C415354CA
:1031C0005F524553554C54004C4153545F534C4F40
:1031D00050450000524541445F4D56004543415023
:1031E0004500000044454255475F4D4F44450000AF
:1031F00044454255475F4F4646000000D00000203E
:1032000053544152540000004552524F52202573EE
:103210002052554E4E494E470D0A00004D6F746FB7
:103220007220494420302D320D0A0000496E76612B
:103230006C696420646972656374696F6E0D0A005D
:1032400053544F50504544005374657073206E754D
:103250006D6265720D0A0000464F5257415244009C
:103260005374657073203E300D0A00005245564578
:10327000525345004D256420257320256C750D0A99
:10328000000000004552524F52204E4F54205741EB
:103290004954494E4720464F522053544152540DF1
:1032A0000A00000043414C0053414D504C45000082
:1032B0005552494E45000000434C45414E00000028
:1032C000504F5745525F434C45414E004D41494E8A
:1032D000540000005052494D455F53544441000092
:1032E0005052494D455F5354444200005052494D9D
:1032F000455F5245460000005052494D455F4449E4
:103300004C55544544000000444953505F535444C5
:1033100041000000444953505F53544442000000B0
:10332000494E56414C494420434D440D0A0000008B
:103330002DE9F0412DED088B86B0F0EE629AB0EEEB
:1033400042AAF0EE61AAB0EE418AF0EE608AB0EED9
:10335000409A00F07FF99FED400A00F055FD9FED87
:103360003FBAF0EE40BAB0EE4B0A00F04DFD3BEE36
:10337000C00A7AEEC90ADFF8E88080EE801AB0EE63
:103380004B0A88ED001A00F03FFDD8ED000A012538
:1033900000EEC09AB0EE000A88ED019A88F8085055
:1033A00000F032FDB0EE409AB1EE000A00F02CFDC4
:1033B00039EE400A7AEE680A08F10C0680EE801AAF
:1033C000B1EE000A86ED001A00F01EFDD6ED000AEF
:1033D00040EEC08A9FED230AC6ED018A357200F0E7
:1033E00013FDDFED218AB0EE409AB0EE680A00F0DE
:1033F0000BFD39EE400A79EEC80A06F10C0480EEA6
:10340000801AB0EE680A84ED001A00F0FDFCD4EDDD
:10341000000A10EE900A00EEC08A84ED018A25723F
:10342000FCF7B9FF04460D463068FCF7B4FF0646CA
:103430000F46D8F80000FCF7AEFF0A468DE8C5003D
:103440000AA264211148CDE9044500F073FC06B0DE
:10345000BDEC088BBDE8F0810000A04200000C43E9
:1034600028000020000070420000C84243414C5F29
:103470004E6120252E3266204B20252E32662043B9
:103480006C20252E32660D0A00000000B0010020DD
:1034900010B5FFF74BFD02490020087010BD000079
:1034A000D000002010B5134C2078012820D1FEF761
:1034B000AFF8E168401A42F21071884218D3607880
:1034C00002280DD003280DD004280DD005280DD0DA
:1034D00009A10BA000F094FABDE81040FFF7D8BF97
:1034E0000CA1F6E70DA1F4E70EA1F2E70FA1F0E7BA
:1034F00010BD0000D0000020554E4B4E4F574E00DF
:103500004552524F522025732054494D454F555432
:103510000D0A000053414D504C4500005552494E94
:1035200045000000434C45414E000000504F5745B8
:10353000525F434C45414E0070B5174C207802282D
:1035400028D1FEF765F805466068216900EB400068
:10355000A36851F82020EB1A9A421BD801EB800097
:10356000806818B1017809B100F07EFA616860697D
:10357000491C814203D3BDE87040FFF789BF6160F9
:1035800001EB41010420226900EB8100105800B1D9
:103590008047A56070BD0000D000002070B50F4CC2
:1035A000257825B1BDE870400DA000F05DBA33B1BB
:1035B000012121706070FEF72BF8E06070BD0223DE
:1035C0002370607000206060C4E90412486800B194
:1035D0008047FEF71DF8A06070BD0000D0000020FD
:1035E0004552524F5220425553590D0A00000000D7
:1035F0002DE9F0410E4607462DED028B1C4615467F
:103600000A211248FDF774FA9FED118A0B210F4829
:1036100020EE080A87ED000AFDF76AFA20EE080A94
:103620000C210A4886ED000AFDF762FA20EE080A2E
:103630000D21064885ED000AFDF75AFA20EE080A2A
:1036400084ED000ABDEC028BBDE8F081600500202E
:1036500000007A4410B50A210348FDF749FADFED6E
:10366000030A20EE200A10BDA80500209B6CF24141
:10367000FFF7B6FA6423132207A10C48FEF72CFFCC
:1036800001210020FFF70AFC01210020FFF744FA86
:10369000642001F089FDFBE74D6F746F7220546167
:1036A000736B20537461727465640A00E80600202D
:1036B000FFF796FA074C0025607818B16570064848
:1036C000FFF740FCFFF7EEFEFFF736FF0A2001F0A0
:1036D0006BFDF1E700000020CC02002010B5FDF7E3
:1036E0009DFF02F003FA012803D0BDE8104002F06C
:1036F0008FB910BD30B593B030216846FCF715FE88
:1037000014210CA8FCF711FE1D480025016841F0AA
:1037100080510160006800F08050119019480168E4
:1037200041F4804101600068022400F4804011905F
:1037300001200090000401908001CDE906400620A0
:103740000890A820CDE9090404200B906846FEF7F4
:10375000EFF808B172B6FEE70CA90F2081E831003E
:103760004FF4A0500F904FF48050109005210CA8FA
:10377000FDF7F2FF002801D072B6FEE713B030BDAE
:1037800040380240007000400248016841F4700176
:103790000160704788ED00E04FF08040016921F042
:1037A00001010161FFF752BBF0B50268274B284DBC
:1037B000284E294F294C4FF0804C984209D0604543
:1037C00007D0A84205D0B04203D0B84201D0A042F1
:1037D00004D122F0700E4A6842EA0E0298421BD0D1
:1037E000604519D0A84217D0B04215D0B84213D0C6
:1037F000A04211D01A4DA8420ED01A4DA8420BD0AB
:10380000194DA84208D0194DA84205D0184DA8421C
:1038100002D0184DA84203D122F44075CA682A4349
:103820004D6922F080022A438D68C5620D68856269
:10383000984201D0A04201D109690163016841F0B9
:1038400004010160012141610260F0BD00000140FE
:103850000004004000080040000C0040000401404B
:103860000040014000440140004801400018004071
:10387000001C00400020004010B5846842EA03228A
:1038800024F47F440A432243826010BD826822F000
:1038900070020A4342F007018160704710B5036A65
:1038A000046A24F001040462846924F0F00444EA08
:1038B000021423F00A020A438461026210BD10B5AB
:1038C000036A046A24F010040462846923F0A003EC
:1038D00024F4704444EA023243EA01118261016235
:1038E00010BD10B5806B0021C185FEF7E2FB10BD55
:1038F00001680C3151E8002F22F4907241E8002356
:10390000002BF5D10168143151E8002F22F001029B
:1039100041E80023002BF5D1016B012909D1016891
:103920000C3151E8002F22F0100241E80023002B57
:10393000F5D1202180F8421000210163704708B5BD
:1039400090F84210222901D0022008BD82684FF46D
:1039500080539A4201D1016921B1816A9A421BD0F8
:103960004AB10AE00268816A5268C2F308020A801A
:10397000816A891C08E0026972B10268526802F02B
:103980007F020A70816A491C8162C18D491E090447
:10399000090CC18503D01BE002685268F1E7016899
:1039A000CA6822F02002CA600168CA6822F48072E4
:1039B000CA6001684A6922F001024A61202180F848
:1039C000421000214163026B012A03D0FEF754FD2F
:1039D000002008BD016301680C3151E8002F22F07E
:1039E000100241E80023002BF5D101680A68D206D5
:1039F00002D50A6849680091818DFEF759FBE7E717
:103A00000FB4802100B5A1B023AB6846229A00F024
:103A1000BDF9684600F028F821B05DF814FB0000FD
:103A200000B591B03AB1009203460A4607A101A839
:103A300000F098F905E003460A4608A101A800F045
:103A400091F901A800F010F811B000BD4D256420D7
:103A5000257320256C750D0A000000004D2564209B
:103A600025730D0A0000000010B50446FCF768FC41
:103A7000214682B2BDE8104064230148FEF72CBD08
:103A8000E806002070B5044600680169E26821F488
:103A90004051114301612169A068E26908436169ED
:103AA000114308432168CA6849F20C639A430243F0
:103AB000CA6020684169A26921F4407111434161E3
:103AC00031492068884202D03049884202D1FDF74E
:103AD000EDFE01E0FDF7DAFEE2690023192164251D
:103AE0003226B2F5004F626828D0A0FB0101930F87
:103AF0009200FCF7C5FB0146B0FBF5F06FF0180231
:103B0000504301EB800006EB0010B0FBF5F000F035
:103B1000F002B1FBF5F002EB0012B1FBF5F06FF033
:103B20001803584301EB800006EB0010B0FBF5F0E2
:103B300000F00F0021681044886070BDA0FB0101F7
:103B400092185B41FCF79CFB0146B0FBF5F00201CB
:103B5000B1FBF5F06FF01803584301EB800006EB62
:103B6000C000B0FBF5F000F0F80002EB4002B1FB42
:103B7000F5F0584301EB800006EBC000B0FBF5F018
:103B800000F00700D6E700000010014000140140DB
:103B900081628285C28500214164222180F8421021
:103BA000016921B10168CA6842F48072CA60016883
:103BB0004A6942F001024A610068C16841F020018F
:103BC000C160002070472DE9F843984617460D461E
:103BD0000446089E24E0701C22D0FDF719FDA0EBDE
:103BE0000800B0421AD8CEB12068C168490717D57D
:103BF000802D15D0402D13D00168C94309070FD47B
:103C000001680025406800902046FFF771FE0820FB
:103C1000606484F840500120BDE8F8830320FBE78E
:103C20002068006835EA000004D00020B842D2D0F5
:103C30000020F1E70120F9E70148FEF73BBA000058
:103C4000E80600202DE9F0412DED048B86B0B0EEA2
:103C5000418AF0EE608AB0EE409A04461FA1FCF75C
:103C600076FB20B31FA12046FCF771FB002819D179
:103C700018EE100AFCF78FFB04460D4618EE900A6A
:103C8000FCF789FB06460F4619EE100AFCF783FB8A
:103C90008DE8C3001D4815A26421CDE9044500BF8D
:103CA00000F048F806B0BDEC048BBDE8F08118EEDA
:103CB000100AFCF770FB0746884618EE900AFCF7DE
:103CC0006AFB05460E4619EE100AFCF764FB8DE808
:103CD000E3010E4864210EA26438E1E753414D50E0
:103CE0004C4500005552494E450000005552494E82
:103CF000455F4E6120252E3266204B20252E3266F0
:103D000020436C20252E32660D0A00004C01002055
:103D100053414D504C455F4E6120252E3266204B5D
:103D200020252E326620436C20252E32660D0A0097
:103D3000FEE700000FB41CB50246002007AC0029C6
:103D40000BD0491ECDE90021054B6A462146069855
:103D500000F04CFD009A002111701CBC5DF814FBB2
:103D60001B4F00080FB4084B10B504A902AA039812
:103D700000F03CFD044602A9002001F0D9F82046DD
:103D800010BC5DF814FB0000314F00087CB5044600
:103D900000201D46164600290BD0491ECDE90041E2
:103DA000044B6A462946304600F020FD009A002167
:103DB00011707CBD1B4F00084100080218BF042091
:103DC0000A0E18BF40F001004FF07F4232EA0101B5
:103DD00008BF40F00200012808BF0520704709070E
:103DE000090E002804DB00F1E02080F80014704781
:103DF00000F00F0000F1E02080F8141D7047000073
:103E000000487047CC00002010EE100A10B5A0F555
:103E100000014FF0000CB1F1FE4F6CD200F5002113
:103E20006FF07E0202EBE153C1F302524FF07E517C
:103E300001EB025100EE901AA0EBC3500CEB030112
:103E400000EE100A51EA020036D030EE601A30EE71
:103E5000200AC1EE000A20EEA00A60EE801A9FED53
:103E60003D2A9FED3D1A3D48DFED3F2A00EE021A44
:103E7000784400EB82009FED3A2A21EE810A01EEA0
:103E8000101AD0ED001A3748B8EEC11A784400EB8A
:103E9000820041EE021A01EE101A90ED002AB8EEEF
:103EA000C11A01EE222A9FED311A32EE000A00EE0D
:103EB000810A31EE800A10BDF7EE000A9FED2D1A3F
:103EC00070EE600A9FED2A0A00EE801A9FED2A0A22
:103ED00060EEA01A00EE810A9FED281A00EE801A0B
:103EE00021EE810A9FED261A00EE810AB5EE0B1A2B
:103EF00000EE810A10BD4FF07F41B1EB400F03D2BD
:103F0000BDE8104000F07CBBB0F1FF4F08BF10BD12
:103F1000B5EEC00AF1EE10FA06D2012000F09EFBC9
:103F2000BDE8104000F072BBB5EEC00AF1EE10FA29
:103F300007D1022000F092FB00F058FBB1EE400ADE
:103F400010BDDFED100A6FF0160C20EE200A10EE07
:103F5000100A63E7DE02323E3B3D943E701F0000D4
:103F600000209A3E741F0000FC849A36D95B5E3FA5
:103F7000924FA93D7279DEBD2D3E143ED85B5EBEE8
:103F8000157B4B3C0000004B10B510EE100A2DEDD8
:103F9000068BB7EE001A10EE901AB0EE418A00229E
:103FA000A0F5000CDFEDFE9A4FF00073BCF1FE4F60
:103FB0004FF07F4403EB410C80F0B481BCF1804FA3
:103FC000C0F02082F74901449FEDF73AB1F5005F58
:103FD00040F2D48200F58021CB0C03F00F0101EEFA
:103FE000901AC3F307137F3BA0EBC350B8EEE12A4E
:103FF00000EE100A1A44DFEDED2AF0EE411A42EE0F
:10400000221AF0EE613A70EE232A30EE632A12EEA5
:10401000900A00F500606FF30B0001EE900A73EE5A
:10402000E13A33EE804AC1EE223A22EE230A10EE44
:10403000100A00F500606FF30B0000EE100A00EEAE
:10404000612A00EE442A62EE232A70EE221A21EE43
:10405000A12ADFEDD73A02EE233A23EE023A20EE10
:10406000012A22EE811A03EE211A32EE010A10EE25
:10407000100A00F500606FF30B0000EE100A72EEFC
:10408000401A31EE812A9FEDCB1A60EE011A9FEDA6
:10409000CA1A20EE011A9FEDC90A02EE001A31EE8B
:1040A000810A10EE100A00F500606FF30B0000EEBD
:1040B000100AC34871EEC01A31EE812A784400EB31
:1040C000C10090ED003AD0ED011A100101EE100A86
:1040D000F8EEC12A32EE211A31EE001A31EE031A3F
:1040E00031EE221A11EE100A00F500606FF30B009A
:1040F00009EE100A39EE621A31EE431A31EE400A27
:1041000030EE610A32EE40AA10EE900A002100F56E
:1041100000606FF30B0008EE900A084670EEE8AA04
:10412000FCF772FB29EE280A00F00C01F0EEC00A41
:1041300010EE900AB0F18B4F0DDD10EE900AB4EB4B
:10414000400F08D310EE100A4FF08B4262F31E00AE
:1041500008EE900A13E069EE2A0A38EEAA1A4AEE2F
:10416000010A30EE201A11EE100A00F500606FF31C
:104170000B0008EE900A30EE680A70EE209A0C20D0
:10418000FCF742FB38EEA90AB5EEC00AF1EE10FAD0
:1041900034BFFEEE000AF6EE000A30EE800ABDEEF5
:1041A000C00A10EE100A011100EE101AF8EEC00A53
:1041B00000EE100AB8EEC00A38EEC00A30EE290A46
:1041C000DFED801A9FED801A00EE211ADFED7F1AD5
:1041D0007F4900F00F0040EE011A21EE800A794479
:1041E00001EB800191ED001A7A49794401EB8001DD
:1041F000D1ED001A784901EE801A794401EB800074
:10420000764990ED000A31EE001AB0EEE00A10EEA9
:10421000100A884215DA10EE100AB4EB400F10D3E2
:104220009FED6F0A30EE800ADFED6E0A20EE200A65
:1042300068EE010ABDEC068BBCEEC00A20EE200A37
:1042400010BD10EE100A6849884243DA10EE100AD9
:10425000B4EB400F3ED3BDEEE00A68EE010A10EE6B
:10426000100A00EBD0725110C90501F17E5100EE29
:10427000101AA0EB6200C00560EE200A00F17E502B
:1042800000EE100A60EE808A18EE900AB4EB400F40
:104290000FD1022000F0E2F900F0C0F910EE101A80
:1042A00018EE100ABDEC068B61F31E0000EE100A3A
:1042B00010BD18EE900A400011D018EE900AFFF7DA
:1042C0007BFD042808BF00F0B1F9B0EE680ABDEC30
:1042D000068B10BDF5EEC00AF1EE10FA0FD20220E7
:1042E00000F0BCF900F0A2F910EE101A18EE100A56
:1042F000BDEC068B61F31E0000EE100A10BD02201B
:1043000000F0ACF900F08AF910EE101AB0EE480A8D
:1043100010EE100ABDEC068B61F31E0000EE100AD1
:1043200010BD00BFBCF1804F6CD300BF00F1FF4354
:10433000B3F1FE4F24D200BFB0EEC00A10EE100A57
:10434000C1F3C7537F2B0DDB972BBFF63BAEC3F1F9
:1043500096034FF0010C0CFA03F3A3F1010C1CEAD5
:10436000010F08D0012000F079F9BDEC068BBDE803
:10437000104000F04BB90B4218BFBFEE008A21E697
:1043800043001CBF4FF08073B3EB400F34D96FF084
:104390001A02DFED161A20EE210A10EE100A27E0AD
:1043A00000000000001080C0ABAAAA3E0000803DC3
:1043B0007EE24C3E00B03842D49AB8BB3BAA3842A9
:1043C000641D0000FC596337C9FF753A1872313D0E
:1043D000021D0000361D0000A61C00000000FC426B
:1043E0000000FE420000004B000040430000004D72
:1043F00010F0004FA0D1E5E5A0F50003B3F1FE4FAA
:1044000021D2DFE503EB4103B3F1007F11D3F5EED9
:10441000C00AF1EE10FA05D1430018BFB4EB400F0B
:1044200076D883E701F0004141F0FC5100EE901A8C
:104430007CE7B3F1807F06D210EE903AA3F500033B
:1044400000EE903A72E720F000426FF0FF4C604CB3
:1044500002EB0C03A34210D321F000439C44A4457B
:104460000BD3B0F17E5F18BF5FEA410C50D0B2F1C0
:10447000FF4F98BFB3F1FF4F05D9BDEC068BBDE8E8
:10448000104000F0C0B8B0F1FF4F0FD0C1F3C752D9
:104490007F2A09DB972A11DAC2F19602012303FA77
:1044A00002F2531E0B4205D0002208E011F0004F2B
:1044B00055D128E00A4218BF012200D1022210F58E
:1044C000000F13D028B3B0F1004F26D010F1814F68
:1044D0004FD04FF0FE42B2EB400F94BF01200020BE
:1044E000012202EBE171884239D10CE011F0004F5A
:1044F00002D0012A38D032E0012A02BF9FED350AEE
:10450000BDEC068B10BD9FED340ABDEC068B10BDD3
:104510002FE011F0004F0CD121E0B1F1FF4F1ED080
:1045200011F5000F05D011F0004F15D00AB1012A86
:1045300008D0022000F092F8BDEC068BBDE81040D8
:1045400000F054B8022000F089F800F04FF8BDECFC
:10455000068BB1EE400A10BD0AB1012A04D0B0EEBC
:10456000690ABDEC068B10BDBDEC068B9FED1B0AE6
:1045700010BDBDEC068BB7EE000A10BD30EE410A4F
:10458000B5EE001A9FED172A00EE413AB6EE001A7A
:1045900060EE001A00EE431A61EEC11A9FED101A88
:1045A00020EE011A20EE020A9FED0F2A01EE820A88
:1045B00071EE001A11EE900A00F500606FF30B0027
:1045C00009EE100A31EE491A31EE00AA9CE500000E
:1045D000FFFF3F00000080FF0000807F00000080A0
:1045E00000B0B841D49A38BB3BAAB841DFED030A0A
:1045F000B7EE001A81EE200A7047000000000000AC
:1046000030EE000A704730EE200A7047DFED020AF4
:1046100080EEA00A70470000000000009FED020A33
:1046200020EE000A70470000000000709FED020AB3
:1046300020EE000A704700000000001002E008C8E9
:10464000121F08C1002AFAD170477047002001E00C
:1046500001C1121F002AFBD1704700000149086008
:1046600070470000CC0000202DE9FF5F82B00021E0
:10467000DDE90430020DDDF840B0034318D044F604
:104680001050A2F2FF3242431514119801281FD096
:10469000A5EB0B00401C5FEA000A4FF000064E4FEE
:1046A000DFF83891B046504615D5CAF1000413E042
:1046B000119801244AA3012801D16FEA0B01029845
:1046C000119AC0E90031C0E9024206B0BDE8F09F8E
:1046D000CBF10000DFE704460021404A491842EBD5
:1046E0000450CDE9001012E0E00707D032463B4607
:1046F00040464946FBF776FF8046894632463B46B0
:1047000010461946FBF76EFF06460F466410002C54
:10471000EAD1DDE90401DDE90023BAF1000F06DA90
:10472000FBF760FF42464B46FBF75CFF05E0FBF7FB
:10473000CBFF42464B46FBF7C7FF04460E4600221E
:10474000284BFCF749F803D84FF0FF30014607E04B
:104750000022254B20463146FBF79DFEFCF723F84F
:10476000102409E0002C0ADB0A220023FBF788FD55
:10477000039B30321A55641E50EA0102F2D1641CC8
:10478000039AC4F111031444119A012A03D001229F
:1047900008430DD10AE0084304D000204FF0110B6C
:1047A000119072E7A3EB0B056D1E0DE05B4504DD78
:1047B0004FF0000205F1010504E003DA4FF00002BA
:1047C000A5F10105002AECD002981199C0E9023147
:1047D000C0E9004579E70000000014400000F03F08
:1047E000300000000000F0430000E03F2DE9FF4FE3
:1047F00095B09B468946064600250FE2252877D1CD
:1048000000242746F84A0121059400E0044316F8E5
:10481000013F203B01FA03F01042F7D130782A28FB
:1048200011D06FF02F033078A0F13002092A16D88A
:10483000059A44F0020402EB820203EB42021044A8
:10484000761C0590EFE759F8042B0592002A03DA4D
:10485000504244F40054059044F00204761C307831
:104860002E2816D116F8010F44F004042A280DD082
:104870006FF02F023078A0F13003092B09D807EB35
:10488000870302EB4303C718761CF3E759F8047B50
:10489000761C30786C280FD006DC4C2817D068289E
:1048A0000DD06A2814D104E0742810D07A280FD1D2
:1048B0000DE044F400140AE044F4801401E044F4F0
:1048C00040147278824202D104F58014761C761C62
:1048D000307866280BD013DC582877D009DC002804
:1048E00075D04528F6D04628F4D047281AD19DE146
:1048F00018E0632835D0642879D0652812D195E175
:10490000702873D008DC6728F1D069286FD06E2832
:104910000DD06F2806D1B5E073282CD0752875D03E
:10492000782874D05A46179990476D1C75E1C4F3E6
:104930000250022809D003280DD0D9F8001004280D
:104940000DD00D6009F1040967E1D9F80010EA17EC
:10495000C1E90052F6E7D9F800100D80F2E70D70BA
:10496000F0E719F8041B8DF8001000208DF8010005
:10497000EA46012003E059F804AB4FF0FF3061072D
:104980004FF0000102D40DE008F101018846B94260
:104990000FDA8045F8DB1AF808100029F4D108E096
:1049A00008F1010188468142FADB1AF80810002953
:1049B000F6D105985B46A0EB080721463846179AC2
:1049C00000F094FA284400EB080507E04DE029E1E7
:1049D0000DE01AF8010B5A4617999047B8F10108F3
:1049E000F7D25B4621463846179A13E142E00A2285
:1049F0000092C4F302524FF0000A022A08D059F87C
:104A000004CB032A4FEAEC710AD00DE029E02AE03A
:104A100009F1070121F00702F2E802C1914609E01D
:104A20000FFA8CFC4FEAEC71042A03D14FFA8CFC8C
:104A30004FEAEC71002907DA0A460021DCF1000C8C
:104A400061EB02012D2202E0220504D52B228DF814
:104A50000420012203E0E20701D02022F7E790467C
:104A600059E00A2102E010220DE010214FF0000A67
:104A700000910BE010224FF0000A44F004040827D4
:104A8000009203E008224FF0000A0092C4F30252A1
:104A9000022A05D059F804CB0021032A08D009E0E6
:104AA00009F1070121F00702F2E802C1914605E091
:104AB0001FFA8CFC042A01D10CF0FF0C4FF0000807
:104AC000220728D5702806D0009B83F0100353EAF4
:104AD0000A0305D00EE040228DF80420012208E0F0
:104AE0005CEA010206D030228DF804208DF8050022
:104AF00002229046009B83F0080353EA0A030AD17E
:104B00005CEA010201D1620705D530228DF804204C
:104B10004FF001087F1E582804D034A003900EA83F
:104B200002900DE036A0F9E753466046009AFBF785
:104B3000A7FB84460398825C0298401E0290027094
:104B40005CEA0100F0D1029806A9081A00F1200AD7
:104B5000600702D524F4803400E00127574502DDC8
:104B6000A7EB0A0000E0002000EB0A010090059886
:104B70004144401A0590E00306D45B462146179A4B
:104B8000059800F0B3F90544002706E001A85A464D
:104B9000C05D179990476D1C7F1C4745F6DBE0030D
:104BA0000CD55B462146179A059800F09FF90544FD
:104BB00004E030205A46179990476D1C0099481E12
:104BC00000900029F5DC08E0029802995A46007826
:104BD000491C0291179990476D1CBAF10001AAF186
:104BE000010AF1DC65E100000928010030313233AF
:104BF0003435363738396162636465660000000019
:104C00003031323334353637383941424344454602
:104C10000000000000F058F90544761C30780028A8
:104C20007FF4ECAD19B02846BDE8F08F620700D4E0
:104C3000062709F1070222F0070CFCE80223E146EF
:104C400003F000485FEA080C02D00FF2702C0DE070
:104C50005FEA045C02D50FF2682C07E05FEAC47CCF
:104C600002D00FF2602C01E0AFF2700C4FF0FF3871
:104C700023F00043CDF850C065280CD006DC452851
:104C800009D046281DD047283DD13DE0662818D0E0
:104C900067287ED138E00021112F01DB112000E0D0
:104CA000781CCDE9000106A90EA8FFF7DDFCDDE9BF
:104CB0000F010E9A03910021009207F1010A04915D
:104CC0004DE04FF000400097CDE9011006A90EA875
:104CD000FFF7CAFCDDE90F0203920E9B1199002237
:104CE000DDF80CA00093049211B9791C00EB010AC5
:104CF000B7EB0A0004D4C0F1FF3007F1010A0490B9
:104D0000AAEB0700019044E0012F00DA01270021FF
:104D1000112F01DD112000E03846CDE9000106A980
:104D20000EA8FFF7A1FCDDE90F010E9A0391002107
:104D300004910092BA4621070CD40399514500DA38
:104D40008A46BAF1010F05DD009AAAF10101515C12
:104D5000302908D0B84202DA10F1040F06DA012136
:104D6000CDE9011015E0AAF10101E9E7002805DC11
:104D7000049901440491AAEB000102E0411C514551
:104D800000DD8A460499401A401C01904FF0004013
:104D90000290200704D40198504501DBCDF804802F
:104DA00000208DF84F0002980DF14F07B0F1004F31
:104DB00025D02B200E9002984FF0020800280CDA24
:104DC000404202902D200E9007E00A210298FBF746
:104DD000F5FA3031029007F8011DB8F10001A8F191
:104DE0000108F2DC02980028EFD1791E0E980870B5
:104DF000307800F0200040F0450007F8020D12A8BE
:104E0000C01B00F107081498007800B1012000EBE6
:104E10000A01019801EBE07105984144401A401ED7
:104E20000590E00306D45B462146179A059800F0EA
:104E30005DF805441498007818B15A4617999047C0
:104E40006D1CE00324D55B462146179A059800F0B7
:104E50004DF805441CE00498002807DBDDE9030158
:104E6000884203DD0098405C179901E017993020D3
:104E70005A469047049805F10105401C049001989A
:104E8000401E019004D12E205A46179990476D1C60
:104E9000BAF10001AAF1010ADDDC05E017F8010B07
:104EA0005A46179990476D1CB8F10001A8F1010806
:104EB000F4DC5B462146179A0598ABE62D0000000E
:104EC0002B000000200000002DE9F04104460025E1
:104ED0001E461746880404D405E039462020B04712
:104EE0006D1C641EF9D52846BDE8F0812DE9F0411E
:104EF000044600251E469046C80301D5302700E031
:104F00002027880404D505E041463846B0476D1C8B
:104F1000641EF9D52846BDE8F0814A68002A06D00B
:104F20000A68531C0B6010704868401E4860704748
:104F30000A68531C0B601070704700224FF49651A2
:104F40000220FDF793BE00000122114601A0FDF7EB
:104F5000D7BC000000000000704700224FF49651BB
:104F60000120FDF783BE00000222012101A0FDF710
:104F7000C7BC00000000000070470000074810B5E3
:104F8000C17831B1103090EC060AFEF7D1F904482F
:104F900000E004A0BDE81040FEF766BD0000002060
:104FA000B00100204552524F522043414C2046410F
:104FB000494C45440D0A000010B5002240F6B831B6
:104FC0000220FDF77DFF0122BDE8104041F2707123
:104FD0000020FDF775BF012264210020FDF770BF9E
:104FE00001224FF47A711046FDF76ABF704710B581
:104FF0004FF44874002221460220FDF761FF21464C
:105000000122BDE810400020FDF75ABF01224FF4F5
:1050100016710020FDF754BF00224FF4FA61022000
:10502000FDF74EBF10B501224FF496510220FDF757
:105030001DFE0022BDE81040114601A0FDF760BC36
:105040000000000010B501224FF496511046FDF704
:105050000DFE0022BDE81040114601A0FDF750BC36
:10506000000000000022114601A0FDF749BC00002D
:1050700053414D504C455F4E6100000000221146E7
:1050800001A0FDF73DBC00005552494E455F4E6101
:105090000000000086B0FCF7C9FAFEF72BFBFDF715
:1050A000EFFAFDF77FFBFDF79FFBFDF7BFFBFDF779
:1050B000EFFBFDF709FCFDF761FAFDF791FA1F48D8
:1050C000FCF748FF002201212520FCF713FB0022FA
:1050D00002211C20FCF70EFB012219491948FDF79B
:1050E000BDF914216846FBF720F917480021026832
:1050F00042F001020260006800F00100059001200A
:10510000CDE900010220029069461048FCF77AF9C7
:105110000FA0FEF7A9FC1E48FEF7A6FC1D48FEF7EF
:10512000A3FC1D48FEF7A0FCFDF78CFA00F043F845
:105130004FF47A74204600F037F8FBE7A006002011
:1051400004000020E8060020303802400000024041
:10515000495345204D6F64756C65205379737465B0
:105160006D20526561647920284C697175696420ED
:10517000446574656374696F6E20766961204F7051
:10518000746F636F75706C6572290D0A0000000002
:1051900038600008EC5F000840610008014600200C
:1051A000842900D0C81C704710B500B9012000F058
:1051B00023FB002010BD10B500F044FB002010BD03
:1051C0007FB50D4604464169B0F9080081B1A16977
:1051D00071B1FFF7E3FFD4E905128DE80700D4E9C8
:1051E00000102B46226900F056FC039004B070BDFD
:1051F000FFF7D4FF03A9CDE90001208A2B4682B234
:10520000D4E9001000F01AFC012801D00020EDE7DD
:105210000398EBE72DE9F041184C0F460546E66888
:105220002068001D00F020FA38B9206890F82C1092
:1052300001208840216981432161681C07D137B171
:105240002168BDE8F0410E48091D00F051BA206800
:105250003544B5424560216805D2A06BBDE8F041F8
:10526000091D00F02DBA606B091D00F029FAA06A33
:10527000854200D2A562BDE8F081000064000020F4
:10528000540800202DE9F041054600F03DFA2E4C6F
:10529000A068401CA06020682C4F10B1606940B32A
:1052A0002DE02560A068012829D1002606EB8600A4
:1052B00007EB800000F0F6F9761C072EF6D32348A2
:1052C0008C3000F0EFF92148A03000F0EBF91F48D6
:1052D000B43000F0E7F91D48C83000F0E3F91B488E
:1052E000DC3000F0DFF919488C3060631430A063C3
:1052F00005E02068E96AC06A884200D82560606AD3
:10530000401C6062E96A01202269884010432061E4
:1053100001EB810007EB8000291D00F0E9F900F0A6
:1053200013FA606900280CD02068E96AC06A8842D4
:1053300007D207494FF080500860BFF34F8FBFF38B
:105340006F8FBDE8F0810000640000207807002026
:1053500004ED00E010B5044690F8510058B1012862
:105360000CD002280FD0502080F31188BFF34F8F4C
:10537000BFF36F8FFEE7206B00F0FAF92046BDE81F
:10538000104000F0F5B910BD10484FF470514207BD
:1053900006D0C01D0D4920F00700411AC1F570511B
:1053A0000B4A00230144C2E900030839183A21F0EE
:1053B000070111604B600B600B1AC0E9001393608A
:1053C0004FF00040536050617047000068080020B3
:1053D000B8000020144E154CA6F1C8074FF08058B5
:1053E000DFF84C9012E000BF00F08EF9F068C5685D
:1053F000281D00F039F9A068401EA0606068401EBA
:10540000606000F0A1F92846FFF7A4FF606800285B
:10541000EAD138680128F9D9C9F80080BFF34F8F65
:10542000BFF36F8FF2E70000400800206400002007
:1054300004ED00E02DE9F0479A46DDE90984814654
:105440006FF00303206B03EB82021044089E20F0F0
:105450000707780707D0502080F31188BFF34F8FDC
:10546000BFF36F8FFEE7002561B1002023180A5CAF
:1054700083F834200A5C12B1401C1028F6D384F85B
:10548000435001E084F83450072E00D30626E6622C
:10549000C4E91165201D00F010F904F1180000F0B6
:1054A0000CF92461C6F107006462A061E56484F828
:1054B000505052464946384600F0C0F82060B8F1D6
:1054C000000F01D0C8F80040BDE8F08730B51149A1
:1054D00000E011460A688242FBD34B685C188442A4
:1054E00003D1406818444860084643681C18944239
:1054F00009D1084C183C2468A24209D052681A44C9
:1055000042600A6812680260814200D0086030BDC3
:105510000460F9E7B80000200648416B096829B12A
:10552000416BC968C9684968816270474FF0FF31B3
:10553000FAE700006400002008484068401C4FF073
:10554000500080F3118804D0BFF34F8FBFF36F8FEB
:10555000FEE7BFF34F8FBFF36F8FFEE7C000002061
:105560002DE9F0410546002700F0A2F9324E3068DF
:1055700008B9FFF709FF706905424ED1C5B3083578
:1055800068070ED005F00700C0F108000544680761
:1055900007D0502080F31188BFF34F8FBFF36F8F78
:1055A000FEE72DB37068854237D82348183001468E
:1055B0000C6801E020460C466168A94202D22168CD
:1055C0000029F7D131688C4227D007682168016033
:1055D00060680837411B10290FD96019420708D0AD
:1055E000502080F31188BFF34F8FBFF36F8FFEE71A
:1055F00013E041606560FFF769FF61687068401AF9
:105600007060B268904200D2B060706901430020BF
:10561000C4E90001F068401CF06000F0DBFA780794
:1056200007D0502080F31188BFF34F8FBFF36F8FE7
:10563000FEE73846BDE8F081A000002010B5031F4A
:105640004FF080741C601B1F21F001011960191FAD
:10565000044B0B6014390A60091F6FF002024438D2
:105660000A6010BD39550008D0E9013201699A601D
:10567000D0E901235A604A68824201D182684A60B7
:10568000002202610868401E086008687047000038
:10569000034B036003F154000860802010607047E2
:1056A0000C03002000F108014FF0FF32C0E90112A5
:1056B000C1600161002101607047002101617047F4
:1056C00030B50B685A1C02D000F1080202E00269F2
:1056D00004E02246546825689D42FAD953684B601D
:1056E00099608A60516008610168491C016030BDA1
:1056F00042684A6093688B60936859609160086162
:105700000168491C01607047502080F31188BFF385
:105710004F8FBFF36F8F0A494868401C48600128CB
:105720000CD10848006810F0FF0F07D0502080F31C
:105730001188BFF34F8FBFF36F8FFEE770470000F4
:10574000C000002004ED00E00849486828B1401E70
:10575000486001D180F311887047502080F3118890
:10576000BFF34F8FBFF36F8FFEE70000C000002034
:1057700070B500282AD0164DA0F108046068696948
:10578000084207D1502080F31188BFF34F8FBFF339
:105790006F8FFEE722683AB1502080F31188BFF383
:1057A0004F8FBFF36F8FFEE78843606000F080F893
:1057B00060686968084468602046FFF787FE2869CA
:1057C000401C2861BDE8704000F004BA70BD0000C4
:1057D000A00000204FF0E020002101618161054917
:1057E0004FF47A720968B1FBF2F1491E4161072159
:1057F000016170476000002010B5020014D00F480E
:10580000006B38B1502080F31188BFF34F8FBFF386
:105810006F8FFEE700F04CF800211046FFF7FAFC0E
:1058200000F0D8F9002807D105494FF080500860F2
:10583000BFF34F8FBFF36F8F10BD000064000020D7
:1058400004ED00E010B586B00024039405AA04A975
:1058500003A80494FFF71CFFDDE903010094CDE9E0
:10586000011000230EA11048059A00F014F90F4909
:105870000028C86211D0502080F31188BFF34F8FE9
:10588000BFF36F8F4FF0FF30886201204861CC601A
:1058900006B0BDE8104000F041B806B010BD0000F1
:1058A00049444C4500000000D55300086400002026
:1058B0000248016B491C016370470000640000202E
:1058C0001448016B11B10121C16170470021C16110
:1058D0000169B1FA81F1C1F11F0101EB81020E49A9
:1058E00051F822306BB101EB820101F108034A68E3
:1058F00052684A609A4201D152684A60D168016098
:105900007047502080F31188BFF34F8FBFF36F8F24
:10591000FEE7000064000020780700201CB537482F
:105920000168374A914207D1502080F31188BFF3B4
:105930004F8FBFF36F8FFEE700683149491E8842E1
:1059400007D1502080F31188BFF34F8FBFF36F8FC3
:10595000FEE72C4908780190FF20087008788DF840
:1059600000009DF800009DF8002000F0F00090423B
:1059700007D0502080F31188BFF34F8FBFF36F8F94
:10598000FEE79DF80000204C00F05000207007203A
:10599000A06005E09DF8002052008DF80020401E18
:1059A0009DF800201206F5D4A060032807D05020EF
:1059B00080F31188BFF34F8FBFF36F8FFEE74FF473
:1059C0004070A060019808700C482030016841F4D4
:1059D00070010160016841F070410160FFF7FAFE5B
:1059E00000206060FAF7FEFB0848016841F0404182
:1059F0000160FAF7E3FB00201CBD000000ED00E0B1
:105A000071C20F4100E400E0C000002034EF00E06C
:105A100010B5502080F31188BFF34F8FBFF36F8F05
:105A200000F072F818B104494FF08050086000206F
:105A300080F3118810BD000004ED00E02DE9FF5F48
:105A40008346DDE90E87994616468A469000FFF7A1
:105A500087FD05001CD05420FFF782FD040014D000
:105A60000020256384F85100CDE90240CDE900878C
:105A70004B46324651465846FFF7DCFC2046FFF7BE
:105A800001FC012004B0BDE8F09F2846FFF770FE3E
:105A90004FF0FF30F6E7F0B585B0DDE90B640A9D05
:105AA000A6B1DCB1542700972663022684F8516022
:105AB000002604AFCDE90246CDE90057FFF7BAFC56
:105AC0002046FFF7DFFB049805B0F0BD502080F3BF
:105AD0001188BFF34F8FBFF36F8FFEE7502080F325
